{"abi":[{"type":"constructor","inputs":[{"name":"_tokens","type":"address[]","internalType":"address[]"},{"name":"_interests","type":"uint256[]","internalType":"uint256[]"},{"name":"_rentTokens","type":"address[]","internalType":"address[]"},{"name":"_nextDraw","type":"uint256","internalType":"uint256"},{"name":"_witnet","type":"address","internalType":"address"}],"stateMutability":"nonpayable"},{"type":"receive","stateMutability":"payable"},{"type":"function","name":"addTokens","inputs":[{"name":"_tokens","type":"address[]","internalType":"address[]"},{"name":"_interests","type":"uint256[]","internalType":"uint256[]"}],"outputs":[],"stateMutability":"nonpayable"},{"type":"function","name":"approve","inputs":[{"name":"to","type":"address","internalType":"address"},{"name":"tokenId","type":"uint256","internalType":"uint256"}],"outputs":[],"stateMutability":"nonpayable"},{"type":"function","name":"balanceOf","inputs":[{"name":"owner","type":"address","internalType":"address"}],"outputs":[{"name":"","type":"uint256","internalType":"uint256"}],"stateMutability":"view"},{"type":"function","name":"buckets","inputs":[{"name":"","type":"address","internalType":"address"},{"name":"","type":"uint256","internalType":"uint256"},{"name":"","type":"uint256","internalType":"uint256"}],"outputs":[{"name":"","type":"uint256","internalType":"uint256"}],"stateMutability":"view"},{"type":"function","name":"doDraw","inputs":[],"outputs":[],"stateMutability":"nonpayable"},{"type":"function","name":"drawInterval","inputs":[],"outputs":[{"name":"","type":"uint256","internalType":"uint256"}],"stateMutability":"view"},{"type":"function","name":"enter","inputs":[{"name":"_tokens","type":"address[]","internalType":"address[]"},{"name":"_amounts","type":"uint256[]","internalType":"uint256[]"}],"outputs":[],"stateMutability":"nonpayable"},{"type":"function","name":"exit","inputs":[{"name":"_ids","type":"uint256[]","internalType":"uint256[]"}],"outputs":[],"stateMutability":"nonpayable"},{"type":"function","name":"findRandomNFT","inputs":[{"name":"_randomness","type":"uint256","internalType":"uint256"}],"outputs":[{"name":"","type":"uint256","internalType":"uint256"}],"stateMutability":"view"},{"type":"function","name":"getApproved","inputs":[{"name":"tokenId","type":"uint256","internalType":"uint256"}],"outputs":[{"name":"","type":"address","internalType":"address"}],"stateMutability":"view"},{"type":"function","name":"getTokensSupported","inputs":[],"outputs":[{"name":"","type":"address[]","internalType":"address[]"}],"stateMutability":"view"},{"type":"function","name":"greatestTier","inputs":[{"name":"","type":"address","internalType":"address"}],"outputs":[{"name":"","type":"uint256","internalType":"uint256"}],"stateMutability":"view"},{"type":"function","name":"interestsCumulated","inputs":[],"outputs":[{"name":"","type":"uint256","internalType":"uint256"}],"stateMutability":"view"},{"type":"function","name":"isApprovedForAll","inputs":[{"name":"owner","type":"address","internalType":"address"},{"name":"operator","type":"address","internalType":"address"}],"outputs":[{"name":"","type":"bool","internalType":"bool"}],"stateMutability":"view"},{"type":"function","name":"lastPrize","inputs":[{"name":"","type":"uint256","internalType":"uint256"}],"outputs":[{"name":"","type":"uint256","internalType":"uint256"}],"stateMutability":"view"},{"type":"function","name":"lastWinner","inputs":[],"outputs":[{"name":"","type":"address","internalType":"address"}],"stateMutability":"view"},{"type":"function","name":"name","inputs":[],"outputs":[{"name":"","type":"string","internalType":"string"}],"stateMutability":"view"},{"type":"function","name":"nextDrawTimestamp","inputs":[],"outputs":[{"name":"","type":"uint256","internalType":"uint256"}],"stateMutability":"view"},{"type":"function","name":"owner","inputs":[],"outputs":[{"name":"","type":"address","internalType":"address"}],"stateMutability":"view"},{"type":"function","name":"ownerOf","inputs":[{"name":"tokenId","type":"uint256","internalType":"uint256"}],"outputs":[{"name":"","type":"address","internalType":"address"}],"stateMutability":"view"},{"type":"function","name":"prizeToBeWon","inputs":[],"outputs":[{"name":"","type":"uint256[]","internalType":"uint256[]"}],"stateMutability":"view"},{"type":"function","name":"renounceOwnership","inputs":[],"outputs":[],"stateMutability":"nonpayable"},{"type":"function","name":"rentTokens","inputs":[{"name":"","type":"uint256","internalType":"uint256"}],"outputs":[{"name":"","type":"address","internalType":"address"}],"stateMutability":"view"},{"type":"function","name":"requestDraw","inputs":[],"outputs":[],"stateMutability":"payable"},{"type":"function","name":"safeTransferFrom","inputs":[{"name":"from","type":"address","internalType":"address"},{"name":"to","type":"address","internalType":"address"},{"name":"tokenId","type":"uint256","internalType":"uint256"}],"outputs":[],"stateMutability":"nonpayable"},{"type":"function","name":"safeTransferFrom","inputs":[{"name":"from","type":"address","internalType":"address"},{"name":"to","type":"address","internalType":"address"},{"name":"tokenId","type":"uint256","internalType":"uint256"},{"name":"data","type":"bytes","internalType":"bytes"}],"outputs":[],"stateMutability":"nonpayable"},{"type":"function","name":"setApprovalForAll","inputs":[{"name":"operator","type":"address","internalType":"address"},{"name":"approved","type":"bool","internalType":"bool"}],"outputs":[],"stateMutability":"nonpayable"},{"type":"function","name":"setDrawInterval","inputs":[{"name":"_interval","type":"uint256","internalType":"uint256"}],"outputs":[],"stateMutability":"nonpayable"},{"type":"function","name":"setInterests","inputs":[{"name":"_tokens","type":"address[]","internalType":"address[]"},{"name":"_interests","type":"uint256[]","internalType":"uint256[]"}],"outputs":[],"stateMutability":"nonpayable"},{"type":"function","name":"setRentTokens","inputs":[{"name":"_rentTokens","type":"address[]","internalType":"address[]"}],"outputs":[],"stateMutability":"nonpayable"},{"type":"function","name":"setWitnet","inputs":[{"name":"_witnet","type":"address","internalType":"address"}],"outputs":[],"stateMutability":"nonpayable"},{"type":"function","name":"stack","inputs":[{"name":"_tickets","type":"uint256[]","internalType":"uint256[]"}],"outputs":[],"stateMutability":"nonpayable"},{"type":"function","name":"supportsInterface","inputs":[{"name":"interfaceId","type":"bytes4","internalType":"bytes4"}],"outputs":[{"name":"","type":"bool","internalType":"bool"}],"stateMutability":"view"},{"type":"function","name":"symbol","inputs":[],"outputs":[{"name":"","type":"string","internalType":"string"}],"stateMutability":"view"},{"type":"function","name":"tickets","inputs":[{"name":"","type":"uint256","internalType":"uint256"}],"outputs":[{"name":"token","type":"address","internalType":"address"},{"name":"amount","type":"uint256","internalType":"uint256"},{"name":"indexInToken","type":"uint256","internalType":"uint256"},{"name":"enteredAt","type":"uint256","internalType":"uint256"},{"name":"stacked","type":"bool","internalType":"bool"}],"stateMutability":"view"},{"type":"function","name":"tokenByIndex","inputs":[{"name":"index","type":"uint256","internalType":"uint256"}],"outputs":[{"name":"","type":"uint256","internalType":"uint256"}],"stateMutability":"view"},{"type":"function","name":"tokenOfOwnerByIndex","inputs":[{"name":"owner","type":"address","internalType":"address"},{"name":"index","type":"uint256","internalType":"uint256"}],"outputs":[{"name":"","type":"uint256","internalType":"uint256"}],"stateMutability":"view"},{"type":"function","name":"tokenURI","inputs":[{"name":"tokenId","type":"uint256","internalType":"uint256"}],"outputs":[{"name":"","type":"string","internalType":"string"}],"stateMutability":"view"},{"type":"function","name":"tokens","inputs":[{"name":"","type":"address","internalType":"address"}],"outputs":[{"name":"interests","type":"uint256","internalType":"uint256"},{"name":"interestsCumulated","type":"uint256","internalType":"uint256"}],"stateMutability":"view"},{"type":"function","name":"tokensSupported","inputs":[{"name":"","type":"uint256","internalType":"uint256"}],"outputs":[{"name":"","type":"address","internalType":"address"}],"stateMutability":"view"},{"type":"function","name":"totalSupply","inputs":[],"outputs":[{"name":"","type":"uint256","internalType":"uint256"}],"stateMutability":"view"},{"type":"function","name":"transferFrom","inputs":[{"name":"from","type":"address","internalType":"address"},{"name":"to","type":"address","internalType":"address"},{"name":"tokenId","type":"uint256","internalType":"uint256"}],"outputs":[],"stateMutability":"nonpayable"},{"type":"function","name":"transferOwnership","inputs":[{"name":"newOwner","type":"address","internalType":"address"}],"outputs":[],"stateMutability":"nonpayable"},{"type":"function","name":"witnetRandomness","inputs":[],"outputs":[{"name":"","type":"address","internalType":"contract IWitnetRandomness"}],"stateMutability":"view"},{"type":"function","name":"witnetRandomnessBlock","inputs":[],"outputs":[{"name":"","type":"uint256","internalType":"uint256"}],"stateMutability":"view"},{"type":"event","name":"Approval","inputs":[{"name":"owner","type":"address","indexed":true,"internalType":"address"},{"name":"approved","type":"address","indexed":true,"internalType":"address"},{"name":"tokenId","type":"uint256","indexed":true,"internalType":"uint256"}],"anonymous":false},{"type":"event","name":"ApprovalForAll","inputs":[{"name":"owner","type":"address","indexed":true,"internalType":"address"},{"name":"operator","type":"address","indexed":true,"internalType":"address"},{"name":"approved","type":"bool","indexed":false,"internalType":"bool"}],"anonymous":false},{"type":"event","name":"OwnershipTransferred","inputs":[{"name":"previousOwner","type":"address","indexed":true,"internalType":"address"},{"name":"newOwner","type":"address","indexed":true,"internalType":"address"}],"anonymous":false},{"type":"event","name":"Transfer","inputs":[{"name":"from","type":"address","indexed":true,"internalType":"address"},{"name":"to","type":"address","indexed":true,"internalType":"address"},{"name":"tokenId","type":"uint256","indexed":true,"internalType":"uint256"}],"anonymous":false},{"type":"error","name":"CouldNotRefund","inputs":[]},{"type":"error","name":"DrawTooEarly","inputs":[]},{"type":"error","name":"NoRandomness","inputs":[]},{"type":"error","name":"NotTicketOwner","inputs":[{"name":"ticket","type":"uint256","internalType":"uint256"}]},{"type":"error","name":"TicketNotReady","inputs":[{"name":"ticket","type":"uint256","internalType":"uint256"}]},{"type":"error","name":"TokenNotSupported","inputs":[{"name":"token","type":"address","internalType":"address"}]}],"bytecode":{"object":"0x60806040523480156200001157600080fd5b50604051620046543803806200465483398101604081905262000034916200047a565b6040518060400160405280600c81526020016b5265616c744c6f747465727960a01b8152506040518060400160405280600381526020016214951360ea1b8152506200008f620000896200025b60201b60201c565b6200025f565b60016200009d838262000613565b506002620000ac828262000613565b50505060005b85518110156200020e576040518060600160405280868381518110620000dc57620000dc620006df565b6020026020010151815260200160006001600160401b038111156200010557620001056200036e565b6040519080825280602002602001820160405280156200012f578160200160208202803683370190505b5081526020016000815250600c6000888481518110620001535762000153620006df565b60200260200101516001600160a01b03166001600160a01b03168152602001908152602001600020600082015181600001556020820151816001019080519060200190620001a3929190620002af565b5060408201518160020155905050600b868281518110620001c857620001c8620006df565b60209081029190910181015182546001808201855560009485529290932090920180546001600160a01b0319166001600160a01b039093169290921790915501620000b2565b50825162000224906012906020860190620002ff565b50601391909155620891c0601455601780546001600160a01b0319166001600160a01b0390921691909117905550620006f5915050565b3390565b600080546001600160a01b038381166001600160a01b0319831681178455604051919092169283917f8be0079c531659141344cd1fd0a4f28419497f9722a3daafe3b4186f6b6457e09190a35050565b828054828255906000526020600020908101928215620002ed579160200282015b82811115620002ed578251825591602001919060010190620002d0565b50620002fb92915062000357565b5090565b828054828255906000526020600020908101928215620002ed579160200282015b82811115620002ed57825182546001600160a01b0319166001600160a01b0390911617825560209092019160019091019062000320565b5b80821115620002fb576000815560010162000358565b634e487b7160e01b600052604160045260246000fd5b604051601f8201601f191681016001600160401b0381118282101715620003af57620003af6200036e565b604052919050565b60006001600160401b03821115620003d357620003d36200036e565b5060051b60200190565b80516001600160a01b0381168114620003f557600080fd5b919050565b600082601f8301126200040c57600080fd5b81516020620004256200041f83620003b7565b62000384565b8083825260208201915060208460051b8701019350868411156200044857600080fd5b602086015b848110156200046f576200046181620003dd565b83529183019183016200044d565b509695505050505050565b600080600080600060a086880312156200049357600080fd5b85516001600160401b0380821115620004ab57600080fd5b620004b989838a01620003fa565b9650602091508188015181811115620004d157600080fd5b8801601f81018a13620004e357600080fd5b8051620004f46200041f82620003b7565b81815260059190911b8201840190848101908c8311156200051457600080fd5b928501925b82841015620005345783518252928501929085019062000519565b60408c01519099509450505050808211156200054f57600080fd5b506200055e88828901620003fa565b935050606086015191506200057660808701620003dd565b90509295509295909350565b600181811c908216806200059757607f821691505b602082108103620005b857634e487b7160e01b600052602260045260246000fd5b50919050565b601f8211156200060e576000816000526020600020601f850160051c81016020861015620005e95750805b601f850160051c820191505b818110156200060a57828155600101620005f5565b5050505b505050565b81516001600160401b038111156200062f576200062f6200036e565b620006478162000640845462000582565b84620005be565b602080601f8311600181146200067f5760008415620006665750858301515b600019600386901b1c1916600185901b1785556200060a565b600085815260208120601f198616915b82811015620006b0578886015182559484019460019091019084016200068f565b5085821015620006cf5787850151600019600388901b60f8161c191681555b5050505050600190811b01905550565b634e487b7160e01b600052603260045260246000fd5b613f4f80620007056000396000f3fe6080604052600436106102765760003560e01c806370ee57211161014f578063b675b332116100c1578063e48603391161007a578063e4860339146107af578063e985e9c5146107f8578063f2f046fd14610841578063f2fde38b14610861578063f5a9d5bb14610881578063fe188184146108a157600080fd5b8063b675b33214610701578063b88d4fde14610717578063bc06c4cc14610737578063c31eb2631461074d578063c87b56dd1461076d578063e101e7d51461078d57600080fd5b8063950a9c6011610113578063950a9c601461066f57806395d89b411461068f578063a22cb465146106a4578063a57848b6146106c4578063a73d2a5a146106cc578063acb33bf9146106e157600080fd5b806370ee5721146105dc578063715018a6146105fc578063766c49c7146106115780638da5cb5b146106315780638de9bd1a1461064f57600080fd5b80632f745c59116101e857806343d1f6c9116101ac57806343d1f6c9146104a45780634f6ccce7146104d157806350b44712146104f15780636352211e1461057c5780636a078b831461059c57806370a08231146105bc57600080fd5b80632f745c591461040e57806334f5dd431461042e57806336615eb01461044e578063372263d91461046457806342842e0e1461048457600080fd5b8063095ea7b31161023a578063095ea7b31461035757806318160ddd1461037957806318c08f261461038e57806323b872dd146103ae578063251bf389146103ce57806327eef8b9146103ee57600080fd5b806301ffc9a71461028257806306d68099146102b757806306fdde03146102db578063081812fc146102fd578063083e5e451461033557600080fd5b3661027d57005b600080fd5b34801561028e57600080fd5b506102a261029d3660046135e8565b6108c1565b60405190151581526020015b60405180910390f35b3480156102c357600080fd5b506102cd600e5481565b6040519081526020016102ae565b3480156102e757600080fd5b506102f06108ec565b6040516102ae9190613655565b34801561030957600080fd5b5061031d610318366004613668565b61097e565b6040516001600160a01b0390911681526020016102ae565b34801561034157600080fd5b5061034a6109a5565b6040516102ae9190613681565b34801561036357600080fd5b506103776103723660046136ea565b610a06565b005b34801561038557600080fd5b506009546102cd565b34801561039a57600080fd5b506103776103a93660046137ee565b610b20565b3480156103ba57600080fd5b506103776103c9366004613823565b6111a5565b3480156103da57600080fd5b506102cd6103e936600461385f565b6111d6565b3480156103fa57600080fd5b5060175461031d906001600160a01b031681565b34801561041a57600080fd5b506102cd6104293660046136ea565b611214565b34801561043a57600080fd5b506103776104493660046138f8565b6112aa565b34801561045a57600080fd5b506102cd60185481565b34801561047057600080fd5b5061031d61047f366004613668565b6112c5565b34801561049057600080fd5b5061037761049f366004613823565b6112ef565b3480156104b057600080fd5b506102cd6104bf36600461392d565b60106020526000908152604090205481565b3480156104dd57600080fd5b506102cd6104ec366004613668565b61130a565b3480156104fd57600080fd5b5061054861050c366004613668565b600d60205260009081526040902080546001820154600283015460038401546004909401546001600160a01b0390931693919290919060ff1685565b604080516001600160a01b03909616865260208601949094529284019190915260608301521515608082015260a0016102ae565b34801561058857600080fd5b5061031d610597366004613668565b61139d565b3480156105a857600080fd5b506103776105b73660046137ee565b6113fd565b3480156105c857600080fd5b506102cd6105d736600461392d565b61174c565b3480156105e857600080fd5b506103776105f7366004613948565b6117d2565b34801561060857600080fd5b506103776119ee565b34801561061d57600080fd5b506102cd61062c366004613668565b611a02565b34801561063d57600080fd5b506000546001600160a01b031661031d565b34801561065b57600080fd5b5061037761066a36600461392d565b611d73565b34801561067b57600080fd5b506102cd61068a366004613668565b611d9d565b34801561069b57600080fd5b506102f0611dbe565b3480156106b057600080fd5b506103776106bf3660046139ba565b611dcd565b610377611dd8565b3480156106d857600080fd5b50610377611eff565b3480156106ed57600080fd5b5061031d6106fc366004613668565b6121d2565b34801561070d57600080fd5b506102cd60135481565b34801561072357600080fd5b506103776107323660046139f1565b6121e2565b34801561074357600080fd5b506102cd60145481565b34801561075957600080fd5b50610377610768366004613948565b61221a565b34801561077957600080fd5b506102f0610788366004613668565b612436565b34801561079957600080fd5b506107a26124aa565b6040516102ae9190613ab1565b3480156107bb57600080fd5b506107e36107ca36600461392d565b600c602052600090815260409020805460029091015482565b604080519283526020830191909152016102ae565b34801561080457600080fd5b506102a2610813366004613ae9565b6001600160a01b03918216600090815260066020908152604080832093909416825291909152205460ff1690565b34801561084d57600080fd5b5061037761085c366004613948565b612696565b34801561086d57600080fd5b5061037761087c36600461392d565b6127ed565b34801561088d57600080fd5b5061037761089c366004613668565b612863565b3480156108ad57600080fd5b5060155461031d906001600160a01b031681565b60006001600160e01b0319821663780e9d6360e01b14806108e657506108e682612870565b92915050565b6060600180546108fb90613b1c565b80601f016020809104026020016040519081016040528092919081815260200182805461092790613b1c565b80156109745780601f1061094957610100808354040283529160200191610974565b820191906000526020600020905b81548152906001019060200180831161095757829003601f168201915b5050505050905090565b6000610989826128c0565b506000908152600560205260409020546001600160a01b031690565b6060600b80548060200260200160405190810160405280929190818152602001828054801561097457602002820191906000526020600020905b81546001600160a01b031681526001909101906020018083116109df575050505050905090565b6000610a118261139d565b9050806001600160a01b0316836001600160a01b031603610a835760405162461bcd60e51b815260206004820152602160248201527f4552433732313a20617070726f76616c20746f2063757272656e74206f776e656044820152603960f91b60648201526084015b60405180910390fd5b336001600160a01b0382161480610a9f5750610a9f8133610813565b610b115760405162461bcd60e51b815260206004820152603d60248201527f4552433732313a20617070726f76652063616c6c6572206973206e6f7420746f60448201527f6b656e206f776e6572206f7220617070726f76656420666f7220616c6c0000006064820152608401610a7a565b610b1b838361291f565b505050565b60005b81518110156111a157336001600160a01b0316610b58838381518110610b4b57610b4b613b50565b602002602001015161139d565b6001600160a01b031603611163576000600d6000848481518110610b7e57610b7e613b50565b60209081029190910181015182528181019290925260409081016000908120825160c08101845281546001600160a01b0316815260018201548186015260028201548185015260038201546060820152600482015460ff16151560808201526005820180548551818802810188019096528086529195929460a0870194909391929184015b82821015610c4957838290600052602060002090600202016040518060400160405290816000820154815260200160018201548152505081526020019060010190610c03565b50505050815250509050610c75838381518110610c6857610c68613b50565b602002602001015161298d565b600d6000848481518110610c8b57610c8b613b50565b6020908102919091018101518252810191909152604001600090812080546001600160a01b031916815560018101829055600281018290556003810182905560048101805460ff1916905590610ce460058301826134e1565b50508060800151156110e25780516001600160a01b039081166000908152600c60205260408082208451909316825281206001908101549192810191610d2a9190613b7c565b81548110610d3a57610d3a613b50565b600091825260208083209091015460408086018051838652600d85528286206002015586516001600160a01b03168552600c90935290922090516001909101805492935083929091908110610d9157610d91613b50565b600091825260208083209091019290925583516001600160a01b03168152600c90915260409020600101805480610dca57610dca613b8f565b60019003818190600052602060002001600090559055600082600001516001600160a01b031663313ce5676040518163ffffffff1660e01b8152600401602060405180830381865afa158015610e24573d6000803e3d6000fd5b505050506040513d601f19601f82011682018060405250810190610e489190613ba5565b610e53906012613bc8565b610e5e90600a613cc5565b60208085015185516001600160a01b03166000908152600c909252604090912054610e899190613cd4565b610e939190613cd4565b83516001600160a01b03166000908152600c6020526040812060020180549293508392909190610ec4908490613b7c565b9250508190555080600e6000828254610edd9190613b7c565b90915550600090505b8360a00151518110156110de5783516001600160a01b03166000908152600f6020526040812060a0860151805191929184908110610f2657610f26613b50565b60200260200101516000015181526020019081526020016000206001600f600087600001516001600160a01b03166001600160a01b0316815260200190815260200160002060008760a001518581518110610f8357610f83613b50565b602002602001015160000151815260200190815260200160002080549050610fab9190613b7c565b81548110610fbb57610fbb613b50565b9060005260206000200154600f600086600001516001600160a01b03166001600160a01b0316815260200190815260200160002060008660a00151848151811061100757611007613b50565b60200260200101516000015181526020019081526020016000208560a00151838151811061103757611037613b50565b6020026020010151602001518154811061105357611053613b50565b600091825260208083209091019290925585516001600160a01b03168152600f9091526040812060a086015180519192918490811061109457611094613b50565b60200260200101516000015181526020019081526020016000208054806110bd576110bd613b8f565b60019003818190600052602060002001600090559055806001019050610ee6565b5050505b8051602082015160405163a9059cbb60e01b815233600482015260248101919091526001600160a01b039091169063a9059cbb906044016020604051808303816000875af1158015611138573d6000803e3d6000fd5b505050506040513d601f19601f8201168201806040525081019061115c9190613ceb565b5050611199565b81818151811061117557611175613b50565b6020026020010151604051634c3f0aa760e11b8152600401610a7a91815260200190565b600101610b23565b5050565b6111af3382612a30565b6111cb5760405162461bcd60e51b8152600401610a7a90613d08565b610b1b838383612aaf565b600f60205282600052604060002060205281600052604060002081815481106111fe57600080fd5b9060005260206000200160009250925050505481565b600061121f8361174c565b82106112815760405162461bcd60e51b815260206004820152602b60248201527f455243373231456e756d657261626c653a206f776e657220696e646578206f7560448201526a74206f6620626f756e647360a81b6064820152608401610a7a565b506001600160a01b03919091166000908152600760209081526040808320938352929052205490565b6112b2612c20565b80516111a1906012906020840190613502565b601281815481106112d557600080fd5b6000918252602090912001546001600160a01b0316905081565b610b1b838383604051806020016040528060008152506121e2565b600061131560095490565b82106113785760405162461bcd60e51b815260206004820152602c60248201527f455243373231456e756d657261626c653a20676c6f62616c20696e646578206f60448201526b7574206f6620626f756e647360a01b6064820152608401610a7a565b6009828154811061138b5761138b613b50565b90600052602060002001549050919050565b6000818152600360205260408120546001600160a01b0316806108e65760405162461bcd60e51b8152602060048201526018602482015277115490cdcc8c4e881a5b9d985b1a59081d1bdad95b88125160421b6044820152606401610a7a565b60005b81518110156111a157336001600160a01b0316611428838381518110610b4b57610b4b613b50565b6001600160a01b031603611163576000600d600084848151811061144e5761144e613b50565b6020026020010151815260200190815260200160002090508060040160009054906101000a900460ff16158015611495575060145460038201546114929042613b7c565b10155b1561170d5760048101805460ff1916600190811790915581546001600160a01b03166000908152600c60205260409020018054600283015583518490849081106114e1576114e1613b50565b60209081029190910181015182546001810184556000938452828420015582546040805163313ce56760e01b815290516001600160a01b039092169263313ce567926004808401938290030181865afa158015611542573d6000803e3d6000fd5b505050506040513d601f19601f820116820180604052508101906115669190613ba5565b611571906012613bc8565b61157c90600a613cc5565b600183015483546001600160a01b03166000908152600c60205260409020546115a59190613cd4565b6115af9190613cd4565b82546001600160a01b03166000908152600c60205260408120600201805492935083929091906115e0908490613d55565b9250508190555080600e60008282546115f99190613d55565b90915550600190505b826001015481116116c85760018301548116156116c05760408051808201825282815284546001600160a01b039081166000908152600f602081815285832087845281528583205481860190815260058a01805460018181018355918652838620975160029091029097019687559051950194909455875490921681529082528281208482529091522085518690869081106116a0576116a0613b50565b602090810291909101810151825460018101845560009384529190922001555b60011b611602565b82546001600160a01b03166000908152601060205260409020548111156117065782546001600160a01b031660009081526010602052604090208190555b5050611743565b82828151811061171f5761171f613b50565b602002602001015160405163aaf5034b60e01b8152600401610a7a91815260200190565b50600101611400565b60006001600160a01b0382166117b65760405162461bcd60e51b815260206004820152602960248201527f4552433732313a2061646472657373207a65726f206973206e6f7420612076616044820152683634b21037bbb732b960b91b6064820152608401610a7a565b506001600160a01b031660009081526004602052604090205490565b60005b8251811015610b1b57600c60008483815181106117f4576117f4613b50565b60200260200101516001600160a01b03166001600160a01b03168152602001908152602001600020600001546000146119a35782818151811061183957611839613b50565b60200260200101516001600160a01b03166323b872dd333085858151811061186357611863613b50565b60209081029190910101516040516001600160e01b031960e086901b1681526001600160a01b03938416600482015292909116602483015260448201526064016020604051808303816000875af11580156118c2573d6000803e3d6000fd5b505050506040513d601f19601f820116820180604052508101906118e69190613ceb565b508281815181106118f9576118f9613b50565b6020026020010151600d6000601154815260200190815260200160002060000160006101000a8154816001600160a01b0302191690836001600160a01b0316021790555081818151811061194f5761194f613b50565b602090810291909101810151601180546000908152600d9093526040808420600101929092558054835290822042600390910155805461199e9233929061199583613d68565b91905055612c7a565b6119e6565b8281815181106119b5576119b5613b50565b60200260200101516040516306439c6b60e01b8152600401610a7a91906001600160a01b0391909116815260200190565b6001016117d5565b6119f6612c20565b611a006000612c94565b565b6000805b600b54811015611cbc576000600c6000600b8481548110611a2957611a29613b50565b60009182526020808320909101546001600160a01b0316835282810193909352604091820190208151606081018352815481526001820180548451818702810187019095528085529194929385840193909290830182828015611aab57602002820191906000526020600020905b815481526020019060010190808311611a97575b5050505050815260200160028201548152505090508060400151841015611cac57600060106000600b8581548110611ae557611ae5613b50565b60009182526020808320909101546001600160a01b0316835282019290925260400190205490505b8015611bfb57600081600f6000600b8781548110611b2d57611b2d613b50565b60009182526020808320909101546001600160a01b031683528281019390935260409182018120868252909252902054611b679190613cd4565b905080861015611be757600f6000600b8681548110611b8857611b88613b50565b60009182526020808320909101546001600160a01b0316835282810193909352604091820181208582529092529020611bc18388613d81565b81548110611bd157611bd1613b50565b9060005260206000200154945050505050919050565b90940393611bf481613da3565b9050611b0d565b50600c6000600b8481548110611c1357611c13613b50565b60009182526020808320909101546001600160a01b031683528201929092526040018120600b8054600192830193600c92909187908110611c5657611c56613b50565b60009182526020808320909101546001600160a01b03168352820192909252604001902060010154611c889190613b7c565b81548110611c9857611c98613b50565b906000526020600020015492505050919050565b6040015190920391600101611a06565b50600b8054600c91600091611cd390600190613b7c565b81548110611ce357611ce3613b50565b60009182526020808320909101546001600160a01b031683528201929092526040018120600b8054600192830193600c929091611d21908590613b7c565b81548110611d3157611d31613b50565b60009182526020808320909101546001600160a01b03168352820192909252604001902060010154611d639190613b7c565b8154811061138b5761138b613b50565b611d7b612c20565b601780546001600160a01b0319166001600160a01b0392909216919091179055565b60168181548110611dad57600080fd5b600091825260209091200154905081565b6060600280546108fb90613b1c565b6111a1338383612ce4565b601354421015611dfb57604051630313ce3760e41b815260040160405180910390fd5b43601855601454611e0c9042613d55565b601355601754604080516334cd994560e11b815290516000926001600160a01b03169163699b328a913491600480820192602092909190829003018185885af1158015611e5d573d6000803e3d6000fd5b50505050506040513d601f19601f82011682018060405250810190611e829190613dba565b905034811015611efc57600033611e998334613b7c565b604051600081818185875af1925050503d8060008114611ed5576040519150601f19603f3d011682016040523d82523d6000602084013e611eda565b606091505b50509050806111a157604051630185aa0b60e21b815260040160405180910390fd5b50565b601854600003611f2257604051630e1a0b9360e31b815260040160405180910390fd5b601754600e546018546040516324cbbfc160e01b815263ffffffff90921660048301526000602483018190526044830191909152916001600160a01b0316906324cbbfc190606401602060405180830381865afa158015611f87573d6000803e3d6000fd5b505050506040513d601f19601f82011682018060405250810190611fab9190613dd3565b63ffffffff16905060006018819055506000611fc682611a02565b90506000611fd38261139d565b90506000611fdf6124aa565b905060005b60125481101561211d5760006012828154811061200357612003613b50565b6000918252602090912001546040516370a0823160e01b81523060048201526001600160a01b03909116906370a0823190602401602060405180830381865afa158015612054573d6000803e3d6000fd5b505050506040513d601f19601f820116820180604052508101906120789190613dba565b90506012828154811061208d5761208d613b50565b6000918252602090912001546040516323b872dd60e01b81523060048201526001600160a01b03868116602483015260448201849052909116906323b872dd906064016020604051808303816000875af11580156120ef573d6000803e3d6000fd5b505050506040513d601f19601f820116820180604052508101906121139190613ceb565b5050600101611fe4565b5060405147906000906001600160a01b0385169083908381818185875af1925050503d806000811461216b576040519150601f19603f3d011682016040523d82523d6000602084013e612170565b606091505b505090508061219b5760008360008151811061218e5761218e613b50565b6020026020010181815250505b601580546001600160a01b0319166001600160a01b03861617905582516121c9906016906020860190613567565b50505050505050565b600b81815481106112d557600080fd5b6121ec3383612a30565b6122085760405162461bcd60e51b8152600401610a7a90613d08565b61221484848484612db2565b50505050565b612222612c20565b60005b8251811015610b1b576000600c600085848151811061224657612246613b50565b60200260200101516001600160a01b03166001600160a01b031681526020019081526020016000206000015490506000600c600086858151811061228c5761228c613b50565b60200260200101516001600160a01b03166001600160a01b031681526020019081526020016000206002015490508383815181106122cc576122cc613b50565b6020026020010151600c60008786815181106122ea576122ea613b50565b60200260200101516001600160a01b03166001600160a01b03168152602001908152602001600020600001819055508184848151811061232c5761232c613b50565b6020026020010151600c600088878151811061234a5761234a613b50565b60200260200101516001600160a01b03166001600160a01b03168152602001908152602001600020600201546123809190613cd4565b61238a9190613d81565b600c60008786815181106123a0576123a0613b50565b60200260200101516001600160a01b03166001600160a01b031681526020019081526020016000206002018190555080600c60008786815181106123e6576123e6613b50565b60200260200101516001600160a01b03166001600160a01b0316815260200190815260200160002060020154600e5461241f9190613d55565b6124299190613b7c565b600e555050600101612225565b6060612441826128c0565b600061245860408051602081019091526000815290565b9050600081511161247857604051806020016040528060008152506124a3565b8061248284612de5565b604051602001612493929190613df9565b6040516020818303038152906040525b9392505050565b6012546060906000906124be906001613d55565b67ffffffffffffffff8111156124d6576124d6613714565b6040519080825280602002602001820160405280156124ff578160200160208202803683370190505b509050478160008151811061251657612516613b50565b60200260200101818152505060005b6012548110156126905760006012828154811061254457612544613b50565b6000918252602090912001546040516370a0823160e01b81523060048201526001600160a01b03909116906370a0823190602401602060405180830381865afa158015612595573d6000803e3d6000fd5b505050506040513d601f19601f820116820180604052508101906125b99190613dba565b9050601282815481106125ce576125ce613b50565b600091825260209182902001546040805163313ce56760e01b815290516001600160a01b039092169263313ce567926004808401938290030181865afa15801561261c573d6000803e3d6000fd5b505050506040513d601f19601f820116820180604052508101906126409190613ba5565b61264b906012613bc8565b61265690600a613cc5565b6126609082613cd4565b8361266c846001613d55565b8151811061267c5761267c613b50565b602090810291909101015250600101612525565b50919050565b61269e612c20565b60005b8251811015610b1b5760405180606001604052808383815181106126c7576126c7613b50565b60200260200101518152602001600067ffffffffffffffff8111156126ee576126ee613714565b604051908082528060200260200182016040528015612717578160200160208202803683370190505b5081526020016000815250600c600085848151811061273857612738613b50565b60200260200101516001600160a01b03166001600160a01b03168152602001908152602001600020600082015181600001556020820151816001019080519060200190612786929190613567565b5060408201518160020155905050600b8382815181106127a8576127a8613b50565b60209081029190910181015182546001808201855560009485529290932090920180546001600160a01b0319166001600160a01b0390931692909217909155016126a1565b6127f5612c20565b6001600160a01b03811661285a5760405162461bcd60e51b815260206004820152602660248201527f4f776e61626c653a206e6577206f776e657220697320746865207a65726f206160448201526564647265737360d01b6064820152608401610a7a565b611efc81612c94565b61286b612c20565b601455565b60006001600160e01b031982166380ac58cd60e01b14806128a157506001600160e01b03198216635b5e139f60e01b145b806108e657506301ffc9a760e01b6001600160e01b03198316146108e6565b6000818152600360205260409020546001600160a01b0316611efc5760405162461bcd60e51b8152602060048201526018602482015277115490cdcc8c4e881a5b9d985b1a59081d1bdad95b88125160421b6044820152606401610a7a565b600081815260056020526040902080546001600160a01b0319166001600160a01b03841690811790915581906129548261139d565b6001600160a01b03167f8c5be1e5ebec7d5bd14f71427d1e84f3dd0314c0f7b2291e5b200ac8c7c3b92560405160405180910390a45050565b60006129988261139d565b90506129a8816000846001612e78565b6129b18261139d565b600083815260056020908152604080832080546001600160a01b03199081169091556001600160a01b0385168085526004845282852080546000190190558785526003909352818420805490911690555192935084927fddf252ad1be2c89b69c2b068fc378daa952ba7f163c4a11628f55a4df523b3ef908390a45050565b600080612a3c8361139d565b9050806001600160a01b0316846001600160a01b03161480612a8357506001600160a01b0380821660009081526006602090815260408083209388168352929052205460ff165b80612aa75750836001600160a01b0316612a9c8461097e565b6001600160a01b0316145b949350505050565b826001600160a01b0316612ac28261139d565b6001600160a01b031614612ae85760405162461bcd60e51b8152600401610a7a90613e28565b6001600160a01b038216612b4a5760405162461bcd60e51b8152602060048201526024808201527f4552433732313a207472616e7366657220746f20746865207a65726f206164646044820152637265737360e01b6064820152608401610a7a565b612b578383836001612e78565b826001600160a01b0316612b6a8261139d565b6001600160a01b031614612b905760405162461bcd60e51b8152600401610a7a90613e28565b600081815260056020908152604080832080546001600160a01b03199081169091556001600160a01b0387811680865260048552838620805460001901905590871680865283862080546001019055868652600390945282852080549092168417909155905184937fddf252ad1be2c89b69c2b068fc378daa952ba7f163c4a11628f55a4df523b3ef91a4505050565b6000546001600160a01b03163314611a005760405162461bcd60e51b815260206004820181905260248201527f4f776e61626c653a2063616c6c6572206973206e6f7420746865206f776e65726044820152606401610a7a565b6111a1828260405180602001604052806000815250612fac565b600080546001600160a01b038381166001600160a01b0319831681178455604051919092169283917f8be0079c531659141344cd1fd0a4f28419497f9722a3daafe3b4186f6b6457e09190a35050565b816001600160a01b0316836001600160a01b031603612d455760405162461bcd60e51b815260206004820152601960248201527f4552433732313a20617070726f766520746f2063616c6c6572000000000000006044820152606401610a7a565b6001600160a01b03838116600081815260066020908152604080832094871680845294825291829020805460ff191686151590811790915591519182527f17307eab39ab6107e8899845ad3d59bd9653f200f220920489ca2b5937696c31910160405180910390a3505050565b612dbd848484612aaf565b612dc984848484612fdf565b6122145760405162461bcd60e51b8152600401610a7a90613e6d565b60606000612df2836130e0565b600101905060008167ffffffffffffffff811115612e1257612e12613714565b6040519080825280601f01601f191660200182016040528015612e3c576020820181803683370190505b5090508181016020015b600019016f181899199a1a9b1b9c1cb0b131b232b360811b600a86061a8153600a8504945084612e4657509392505050565b6001811115612ee75760405162461bcd60e51b815260206004820152603560248201527f455243373231456e756d657261626c653a20636f6e7365637574697665207472604482015274185b9cd9995c9cc81b9bdd081cdd5c1c1bdc9d1959605a1b6064820152608401610a7a565b816001600160a01b038516612f4357612f3e81600980546000838152600a60205260408120829055600182018355919091527f6e1540171b6c0c960b71a7020d9f60077f6af931a8bbf590da0223dacf75c7af0155565b612f66565b836001600160a01b0316856001600160a01b031614612f6657612f6685826131b8565b6001600160a01b038416612f8257612f7d81613255565b612fa5565b846001600160a01b0316846001600160a01b031614612fa557612fa58482613304565b5050505050565b612fb68383613348565b612fc36000848484612fdf565b610b1b5760405162461bcd60e51b8152600401610a7a90613e6d565b60006001600160a01b0384163b156130d557604051630a85bd0160e11b81526001600160a01b0385169063150b7a0290613023903390899088908890600401613ebf565b6020604051808303816000875af192505050801561305e575060408051601f3d908101601f1916820190925261305b91810190613efc565b60015b6130bb573d80801561308c576040519150601f19603f3d011682016040523d82523d6000602084013e613091565b606091505b5080516000036130b35760405162461bcd60e51b8152600401610a7a90613e6d565b805181602001fd5b6001600160e01b031916630a85bd0160e11b149050612aa7565b506001949350505050565b60008072184f03e93ff9f4daa797ed6e38ed64bf6a1f0160401b831061311f5772184f03e93ff9f4daa797ed6e38ed64bf6a1f0160401b830492506040015b6d04ee2d6d415b85acef8100000000831061314b576d04ee2d6d415b85acef8100000000830492506020015b662386f26fc10000831061316957662386f26fc10000830492506010015b6305f5e1008310613181576305f5e100830492506008015b612710831061319557612710830492506004015b606483106131a7576064830492506002015b600a83106108e65760010192915050565b600060016131c58461174c565b6131cf9190613b7c565b600083815260086020526040902054909150808214613222576001600160a01b03841660009081526007602090815260408083208584528252808320548484528184208190558352600890915290208190555b5060009182526008602090815260408084208490556001600160a01b039094168352600781528383209183525290812055565b60095460009061326790600190613b7c565b6000838152600a60205260408120546009805493945090928490811061328f5761328f613b50565b9060005260206000200154905080600983815481106132b0576132b0613b50565b6000918252602080832090910192909255828152600a909152604080822084905585825281205560098054806132e8576132e8613b8f565b6001900381819060005260206000200160009055905550505050565b600061330f8361174c565b6001600160a01b039093166000908152600760209081526040808320868452825280832085905593825260089052919091209190915550565b6001600160a01b03821661339e5760405162461bcd60e51b815260206004820181905260248201527f4552433732313a206d696e7420746f20746865207a65726f20616464726573736044820152606401610a7a565b6000818152600360205260409020546001600160a01b0316156134035760405162461bcd60e51b815260206004820152601c60248201527f4552433732313a20746f6b656e20616c7265616479206d696e746564000000006044820152606401610a7a565b613411600083836001612e78565b6000818152600360205260409020546001600160a01b0316156134765760405162461bcd60e51b815260206004820152601c60248201527f4552433732313a20746f6b656e20616c7265616479206d696e746564000000006044820152606401610a7a565b6001600160a01b038216600081815260046020908152604080832080546001019055848352600390915280822080546001600160a01b0319168417905551839291907fddf252ad1be2c89b69c2b068fc378daa952ba7f163c4a11628f55a4df523b3ef908290a45050565b5080546000825560020290600052602060002090810190611efc91906135a2565b828054828255906000526020600020908101928215613557579160200282015b8281111561355757825182546001600160a01b0319166001600160a01b03909116178255602090920191600190910190613522565b506135639291506135bd565b5090565b828054828255906000526020600020908101928215613557579160200282015b82811115613557578251825591602001919060010190613587565b5b8082111561356357600080825560018201556002016135a3565b5b8082111561356357600081556001016135be565b6001600160e01b031981168114611efc57600080fd5b6000602082840312156135fa57600080fd5b81356124a3816135d2565b60005b83811015613620578181015183820152602001613608565b50506000910152565b60008151808452613641816020860160208601613605565b601f01601f19169290920160200192915050565b6020815260006124a36020830184613629565b60006020828403121561367a57600080fd5b5035919050565b6020808252825182820181905260009190848201906040850190845b818110156136c25783516001600160a01b03168352928401929184019160010161369d565b50909695505050505050565b80356001600160a01b03811681146136e557600080fd5b919050565b600080604083850312156136fd57600080fd5b613706836136ce565b946020939093013593505050565b634e487b7160e01b600052604160045260246000fd5b604051601f8201601f1916810167ffffffffffffffff8111828210171561375357613753613714565b604052919050565b600067ffffffffffffffff82111561377557613775613714565b5060051b60200190565b600082601f83011261379057600080fd5b813560206137a56137a08361375b565b61372a565b8083825260208201915060208460051b8701019350868411156137c757600080fd5b602086015b848110156137e357803583529183019183016137cc565b509695505050505050565b60006020828403121561380057600080fd5b813567ffffffffffffffff81111561381757600080fd5b612aa78482850161377f565b60008060006060848603121561383857600080fd5b613841846136ce565b925061384f602085016136ce565b9150604084013590509250925092565b60008060006060848603121561387457600080fd5b61387d846136ce565b95602085013595506040909401359392505050565b600082601f8301126138a357600080fd5b813560206138b36137a08361375b565b8083825260208201915060208460051b8701019350868411156138d557600080fd5b602086015b848110156137e3576138eb816136ce565b83529183019183016138da565b60006020828403121561390a57600080fd5b813567ffffffffffffffff81111561392157600080fd5b612aa784828501613892565b60006020828403121561393f57600080fd5b6124a3826136ce565b6000806040838503121561395b57600080fd5b823567ffffffffffffffff8082111561397357600080fd5b61397f86838701613892565b9350602085013591508082111561399557600080fd5b506139a28582860161377f565b9150509250929050565b8015158114611efc57600080fd5b600080604083850312156139cd57600080fd5b6139d6836136ce565b915060208301356139e6816139ac565b809150509250929050565b60008060008060808587031215613a0757600080fd5b613a10856136ce565b93506020613a1f8187016136ce565b935060408601359250606086013567ffffffffffffffff80821115613a4357600080fd5b818801915088601f830112613a5757600080fd5b813581811115613a6957613a69613714565b613a7b601f8201601f1916850161372a565b91508082528984828501011115613a9157600080fd5b808484018584013760008482840101525080935050505092959194509250565b6020808252825182820181905260009190848201906040850190845b818110156136c257835183529284019291840191600101613acd565b60008060408385031215613afc57600080fd5b613b05836136ce565b9150613b13602084016136ce565b90509250929050565b600181811c90821680613b3057607f821691505b60208210810361269057634e487b7160e01b600052602260045260246000fd5b634e487b7160e01b600052603260045260246000fd5b634e487b7160e01b600052601160045260246000fd5b818103818111156108e6576108e6613b66565b634e487b7160e01b600052603160045260246000fd5b600060208284031215613bb757600080fd5b815160ff811681146124a357600080fd5b60ff82811682821603908111156108e6576108e6613b66565b600181815b80851115613c1c578160001904821115613c0257613c02613b66565b80851615613c0f57918102915b93841c9390800290613be6565b509250929050565b600082613c33575060016108e6565b81613c40575060006108e6565b8160018114613c565760028114613c6057613c7c565b60019150506108e6565b60ff841115613c7157613c71613b66565b50506001821b6108e6565b5060208310610133831016604e8410600b8410161715613c9f575081810a6108e6565b613ca98383613be1565b8060001904821115613cbd57613cbd613b66565b029392505050565b60006124a360ff841683613c24565b80820281158282048414176108e6576108e6613b66565b600060208284031215613cfd57600080fd5b81516124a3816139ac565b6020808252602d908201527f4552433732313a2063616c6c6572206973206e6f7420746f6b656e206f776e6560408201526c1c881bdc88185c1c1c9bdd9959609a1b606082015260800190565b808201808211156108e6576108e6613b66565b600060018201613d7a57613d7a613b66565b5060010190565b600082613d9e57634e487b7160e01b600052601260045260246000fd5b500490565b600081613db257613db2613b66565b506000190190565b600060208284031215613dcc57600080fd5b5051919050565b600060208284031215613de557600080fd5b815163ffffffff811681146124a357600080fd5b60008351613e0b818460208801613605565b835190830190613e1f818360208801613605565b01949350505050565b60208082526025908201527f4552433732313a207472616e736665722066726f6d20696e636f72726563742060408201526437bbb732b960d91b606082015260800190565b60208082526032908201527f4552433732313a207472616e7366657220746f206e6f6e20455243373231526560408201527131b2b4bb32b91034b6b83632b6b2b73a32b960711b606082015260800190565b6001600160a01b0385811682528416602082015260408101839052608060608201819052600090613ef290830184613629565b9695505050505050565b600060208284031215613f0e57600080fd5b81516124a3816135d256fea26469706673582212206886b82326339db0201ea68b847bb2b47d5bf758bdc8f3bb591c6b5ec8ca383764736f6c63430008170033","linkReferences":{}},"methodIdentifiers":{"addTokens(address[],uint256[])":"f2f046fd","approve(address,uint256)":"095ea7b3","balanceOf(address)":"70a08231","buckets(address,uint256,uint256)":"251bf389","doDraw()":"a73d2a5a","drawInterval()":"bc06c4cc","enter(address[],uint256[])":"70ee5721","exit(uint256[])":"18c08f26","findRandomNFT(uint256)":"766c49c7","getApproved(uint256)":"081812fc","getTokensSupported()":"083e5e45","greatestTier(address)":"43d1f6c9","interestsCumulated()":"06d68099","isApprovedForAll(address,address)":"e985e9c5","lastPrize(uint256)":"950a9c60","lastWinner()":"fe188184","name()":"06fdde03","nextDrawTimestamp()":"b675b332","owner()":"8da5cb5b","ownerOf(uint256)":"6352211e","prizeToBeWon()":"e101e7d5","renounceOwnership()":"715018a6","rentTokens(uint256)":"372263d9","requestDraw()":"a57848b6","safeTransferFrom(address,address,uint256)":"42842e0e","safeTransferFrom(address,address,uint256,bytes)":"b88d4fde","setApprovalForAll(address,bool)":"a22cb465","setDrawInterval(uint256)":"f5a9d5bb","setInterests(address[],uint256[])":"c31eb263","setRentTokens(address[])":"34f5dd43","setWitnet(address)":"8de9bd1a","stack(uint256[])":"6a078b83","supportsInterface(bytes4)":"01ffc9a7","symbol()":"95d89b41","tickets(uint256)":"50b44712","tokenByIndex(uint256)":"4f6ccce7","tokenOfOwnerByIndex(address,uint256)":"2f745c59","tokenURI(uint256)":"c87b56dd","tokens(address)":"e4860339","tokensSupported(uint256)":"acb33bf9","totalSupply()":"18160ddd","transferFrom(address,address,uint256)":"23b872dd","transferOwnership(address)":"f2fde38b","witnetRandomness()":"27eef8b9","witnetRandomnessBlock()":"36615eb0"},"id":41}