{
    "abi": [
        {
            "inputs": [
                {
                    "internalType": "address[]",
                    "name": "_tokens",
                    "type": "address[]"
                },
                {
                    "internalType": "uint256[]",
                    "name": "_interests",
                    "type": "uint256[]"
                },
                {
                    "internalType": "address[]",
                    "name": "_rentTokens",
                    "type": "address[]"
                },
                {
                    "internalType": "uint256",
                    "name": "_nextDraw",
                    "type": "uint256"
                },
                {
                    "internalType": "address",
                    "name": "_witnet",
                    "type": "address"
                }
            ],
            "stateMutability": "nonpayable",
            "type": "constructor"
        },
        {
            "inputs": [],
            "name": "CouldNotRefund",
            "type": "error"
        },
        {
            "inputs": [],
            "name": "DrawTooEarly",
            "type": "error"
        },
        {
            "inputs": [],
            "name": "NoRandomness",
            "type": "error"
        },
        {
            "inputs": [
                {
                    "internalType": "uint256",
                    "name": "ticket",
                    "type": "uint256"
                }
            ],
            "name": "NotTicketOwner",
            "type": "error"
        },
        {
            "inputs": [
                {
                    "internalType": "uint256",
                    "name": "ticket",
                    "type": "uint256"
                }
            ],
            "name": "TicketNotReady",
            "type": "error"
        },
        {
            "inputs": [
                {
                    "internalType": "address",
                    "name": "token",
                    "type": "address"
                }
            ],
            "name": "TokenNotSupported",
            "type": "error"
        },
        {
            "anonymous": false,
            "inputs": [
                {
                    "indexed": true,
                    "internalType": "address",
                    "name": "owner",
                    "type": "address"
                },
                {
                    "indexed": true,
                    "internalType": "address",
                    "name": "approved",
                    "type": "address"
                },
                {
                    "indexed": true,
                    "internalType": "uint256",
                    "name": "tokenId",
                    "type": "uint256"
                }
            ],
            "name": "Approval",
            "type": "event"
        },
        {
            "anonymous": false,
            "inputs": [
                {
                    "indexed": true,
                    "internalType": "address",
                    "name": "owner",
                    "type": "address"
                },
                {
                    "indexed": true,
                    "internalType": "address",
                    "name": "operator",
                    "type": "address"
                },
                {
                    "indexed": false,
                    "internalType": "bool",
                    "name": "approved",
                    "type": "bool"
                }
            ],
            "name": "ApprovalForAll",
            "type": "event"
        },
        {
            "anonymous": false,
            "inputs": [
                {
                    "indexed": true,
                    "internalType": "address",
                    "name": "previousOwner",
                    "type": "address"
                },
                {
                    "indexed": true,
                    "internalType": "address",
                    "name": "newOwner",
                    "type": "address"
                }
            ],
            "name": "OwnershipTransferred",
            "type": "event"
        },
        {
            "anonymous": false,
            "inputs": [
                {
                    "indexed": true,
                    "internalType": "address",
                    "name": "from",
                    "type": "address"
                },
                {
                    "indexed": true,
                    "internalType": "address",
                    "name": "to",
                    "type": "address"
                },
                {
                    "indexed": true,
                    "internalType": "uint256",
                    "name": "tokenId",
                    "type": "uint256"
                }
            ],
            "name": "Transfer",
            "type": "event"
        },
        {
            "inputs": [
                {
                    "internalType": "address[]",
                    "name": "_tokens",
                    "type": "address[]"
                },
                {
                    "internalType": "uint256[]",
                    "name": "_interests",
                    "type": "uint256[]"
                }
            ],
            "name": "addTokens",
            "outputs": [],
            "stateMutability": "nonpayable",
            "type": "function"
        },
        {
            "inputs": [
                {
                    "internalType": "address",
                    "name": "to",
                    "type": "address"
                },
                {
                    "internalType": "uint256",
                    "name": "tokenId",
                    "type": "uint256"
                }
            ],
            "name": "approve",
            "outputs": [],
            "stateMutability": "nonpayable",
            "type": "function"
        },
        {
            "inputs": [
                {
                    "internalType": "address",
                    "name": "owner",
                    "type": "address"
                }
            ],
            "name": "balanceOf",
            "outputs": [
                {
                    "internalType": "uint256",
                    "name": "",
                    "type": "uint256"
                }
            ],
            "stateMutability": "view",
            "type": "function"
        },
        {
            "inputs": [],
            "name": "doDraw",
            "outputs": [],
            "stateMutability": "nonpayable",
            "type": "function"
        },
        {
            "inputs": [],
            "name": "drawInterval",
            "outputs": [
                {
                    "internalType": "uint256",
                    "name": "",
                    "type": "uint256"
                }
            ],
            "stateMutability": "view",
            "type": "function"
        },
        {
            "inputs": [
                {
                    "internalType": "address[]",
                    "name": "_tokens",
                    "type": "address[]"
                },
                {
                    "internalType": "uint256[][]",
                    "name": "_ids",
                    "type": "uint256[][]"
                }
            ],
            "name": "enter",
            "outputs": [],
            "stateMutability": "nonpayable",
            "type": "function"
        },
        {
            "inputs": [
                {
                    "internalType": "uint256[]",
                    "name": "_ids",
                    "type": "uint256[]"
                }
            ],
            "name": "exit",
            "outputs": [],
            "stateMutability": "nonpayable",
            "type": "function"
        },
        {
            "inputs": [
                {
                    "internalType": "uint256",
                    "name": "_randomness",
                    "type": "uint256"
                }
            ],
            "name": "findRandomNFT",
            "outputs": [
                {
                    "internalType": "uint256",
                    "name": "",
                    "type": "uint256"
                }
            ],
            "stateMutability": "view",
            "type": "function"
        },
        {
            "inputs": [
                {
                    "internalType": "uint256",
                    "name": "tokenId",
                    "type": "uint256"
                }
            ],
            "name": "getApproved",
            "outputs": [
                {
                    "internalType": "address",
                    "name": "",
                    "type": "address"
                }
            ],
            "stateMutability": "view",
            "type": "function"
        },
        {
            "inputs": [],
            "name": "interestsCumulated",
            "outputs": [
                {
                    "internalType": "uint256",
                    "name": "",
                    "type": "uint256"
                }
            ],
            "stateMutability": "view",
            "type": "function"
        },
        {
            "inputs": [
                {
                    "internalType": "address",
                    "name": "owner",
                    "type": "address"
                },
                {
                    "internalType": "address",
                    "name": "operator",
                    "type": "address"
                }
            ],
            "name": "isApprovedForAll",
            "outputs": [
                {
                    "internalType": "bool",
                    "name": "",
                    "type": "bool"
                }
            ],
            "stateMutability": "view",
            "type": "function"
        },
        {
            "inputs": [],
            "name": "name",
            "outputs": [
                {
                    "internalType": "string",
                    "name": "",
                    "type": "string"
                }
            ],
            "stateMutability": "view",
            "type": "function"
        },
        {
            "inputs": [],
            "name": "nextDrawTimestamp",
            "outputs": [
                {
                    "internalType": "uint256",
                    "name": "",
                    "type": "uint256"
                }
            ],
            "stateMutability": "view",
            "type": "function"
        },
        {
            "inputs": [
                {
                    "internalType": "address",
                    "name": "",
                    "type": "address"
                },
                {
                    "internalType": "address",
                    "name": "",
                    "type": "address"
                },
                {
                    "internalType": "uint256",
                    "name": "",
                    "type": "uint256"
                },
                {
                    "internalType": "bytes",
                    "name": "",
                    "type": "bytes"
                }
            ],
            "name": "onERC721Received",
            "outputs": [
                {
                    "internalType": "bytes4",
                    "name": "",
                    "type": "bytes4"
                }
            ],
            "stateMutability": "nonpayable",
            "type": "function"
        },
        {
            "inputs": [],
            "name": "owner",
            "outputs": [
                {
                    "internalType": "address",
                    "name": "",
                    "type": "address"
                }
            ],
            "stateMutability": "view",
            "type": "function"
        },
        {
            "inputs": [
                {
                    "internalType": "uint256",
                    "name": "tokenId",
                    "type": "uint256"
                }
            ],
            "name": "ownerOf",
            "outputs": [
                {
                    "internalType": "address",
                    "name": "",
                    "type": "address"
                }
            ],
            "stateMutability": "view",
            "type": "function"
        },
        {
            "inputs": [],
            "name": "renounceOwnership",
            "outputs": [],
            "stateMutability": "nonpayable",
            "type": "function"
        },
        {
            "inputs": [
                {
                    "internalType": "uint256",
                    "name": "",
                    "type": "uint256"
                }
            ],
            "name": "rentTokens",
            "outputs": [
                {
                    "internalType": "address",
                    "name": "",
                    "type": "address"
                }
            ],
            "stateMutability": "view",
            "type": "function"
        },
        {
            "inputs": [],
            "name": "requestDraw",
            "outputs": [],
            "stateMutability": "payable",
            "type": "function"
        },
        {
            "inputs": [
                {
                    "internalType": "address",
                    "name": "from",
                    "type": "address"
                },
                {
                    "internalType": "address",
                    "name": "to",
                    "type": "address"
                },
                {
                    "internalType": "uint256",
                    "name": "tokenId",
                    "type": "uint256"
                }
            ],
            "name": "safeTransferFrom",
            "outputs": [],
            "stateMutability": "nonpayable",
            "type": "function"
        },
        {
            "inputs": [
                {
                    "internalType": "address",
                    "name": "from",
                    "type": "address"
                },
                {
                    "internalType": "address",
                    "name": "to",
                    "type": "address"
                },
                {
                    "internalType": "uint256",
                    "name": "tokenId",
                    "type": "uint256"
                },
                {
                    "internalType": "bytes",
                    "name": "data",
                    "type": "bytes"
                }
            ],
            "name": "safeTransferFrom",
            "outputs": [],
            "stateMutability": "nonpayable",
            "type": "function"
        },
        {
            "inputs": [
                {
                    "internalType": "address",
                    "name": "operator",
                    "type": "address"
                },
                {
                    "internalType": "bool",
                    "name": "approved",
                    "type": "bool"
                }
            ],
            "name": "setApprovalForAll",
            "outputs": [],
            "stateMutability": "nonpayable",
            "type": "function"
        },
        {
            "inputs": [
                {
                    "internalType": "uint256",
                    "name": "_interval",
                    "type": "uint256"
                }
            ],
            "name": "setDrawInterval",
            "outputs": [],
            "stateMutability": "nonpayable",
            "type": "function"
        },
        {
            "inputs": [
                {
                    "internalType": "address[]",
                    "name": "_tokens",
                    "type": "address[]"
                },
                {
                    "internalType": "uint256[]",
                    "name": "_interests",
                    "type": "uint256[]"
                }
            ],
            "name": "setInterests",
            "outputs": [],
            "stateMutability": "nonpayable",
            "type": "function"
        },
        {
            "inputs": [
                {
                    "internalType": "address[]",
                    "name": "_rentTokens",
                    "type": "address[]"
                }
            ],
            "name": "setRentTokens",
            "outputs": [],
            "stateMutability": "nonpayable",
            "type": "function"
        },
        {
            "inputs": [
                {
                    "internalType": "address",
                    "name": "_witnet",
                    "type": "address"
                }
            ],
            "name": "setWitnet",
            "outputs": [],
            "stateMutability": "nonpayable",
            "type": "function"
        },
        {
            "inputs": [
                {
                    "internalType": "uint256[]",
                    "name": "_tickets",
                    "type": "uint256[]"
                }
            ],
            "name": "stack",
            "outputs": [],
            "stateMutability": "nonpayable",
            "type": "function"
        },
        {
            "inputs": [
                {
                    "internalType": "bytes4",
                    "name": "interfaceId",
                    "type": "bytes4"
                }
            ],
            "name": "supportsInterface",
            "outputs": [
                {
                    "internalType": "bool",
                    "name": "",
                    "type": "bool"
                }
            ],
            "stateMutability": "view",
            "type": "function"
        },
        {
            "inputs": [],
            "name": "symbol",
            "outputs": [
                {
                    "internalType": "string",
                    "name": "",
                    "type": "string"
                }
            ],
            "stateMutability": "view",
            "type": "function"
        },
        {
            "inputs": [
                {
                    "internalType": "uint256",
                    "name": "",
                    "type": "uint256"
                }
            ],
            "name": "tickets",
            "outputs": [
                {
                    "internalType": "address",
                    "name": "token",
                    "type": "address"
                },
                {
                    "internalType": "uint256",
                    "name": "id",
                    "type": "uint256"
                },
                {
                    "internalType": "uint256",
                    "name": "indexInToken",
                    "type": "uint256"
                },
                {
                    "internalType": "uint256",
                    "name": "enteredAt",
                    "type": "uint256"
                },
                {
                    "internalType": "bool",
                    "name": "stacked",
                    "type": "bool"
                }
            ],
            "stateMutability": "view",
            "type": "function"
        },
        {
            "inputs": [
                {
                    "internalType": "uint256",
                    "name": "tokenId",
                    "type": "uint256"
                }
            ],
            "name": "tokenURI",
            "outputs": [
                {
                    "internalType": "string",
                    "name": "",
                    "type": "string"
                }
            ],
            "stateMutability": "view",
            "type": "function"
        },
        {
            "inputs": [
                {
                    "internalType": "address",
                    "name": "",
                    "type": "address"
                }
            ],
            "name": "tokens",
            "outputs": [
                {
                    "internalType": "uint256",
                    "name": "interests",
                    "type": "uint256"
                }
            ],
            "stateMutability": "view",
            "type": "function"
        },
        {
            "inputs": [
                {
                    "internalType": "uint256",
                    "name": "",
                    "type": "uint256"
                }
            ],
            "name": "tokensSupported",
            "outputs": [
                {
                    "internalType": "address",
                    "name": "",
                    "type": "address"
                }
            ],
            "stateMutability": "view",
            "type": "function"
        },
        {
            "inputs": [
                {
                    "internalType": "address",
                    "name": "from",
                    "type": "address"
                },
                {
                    "internalType": "address",
                    "name": "to",
                    "type": "address"
                },
                {
                    "internalType": "uint256",
                    "name": "tokenId",
                    "type": "uint256"
                }
            ],
            "name": "transferFrom",
            "outputs": [],
            "stateMutability": "nonpayable",
            "type": "function"
        },
        {
            "inputs": [
                {
                    "internalType": "address",
                    "name": "newOwner",
                    "type": "address"
                }
            ],
            "name": "transferOwnership",
            "outputs": [],
            "stateMutability": "nonpayable",
            "type": "function"
        },
        {
            "inputs": [],
            "name": "witnetRandomness",
            "outputs": [
                {
                    "internalType": "contract IWitnetRandomness",
                    "name": "",
                    "type": "address"
                }
            ],
            "stateMutability": "view",
            "type": "function"
        },
        {
            "inputs": [],
            "name": "witnetRandomnessBlock",
            "outputs": [
                {
                    "internalType": "uint256",
                    "name": "",
                    "type": "uint256"
                }
            ],
            "stateMutability": "view",
            "type": "function"
        },
        {
            "stateMutability": "payable",
            "type": "receive"
        }
    ],
    "bytecode": {
        "object": "0x60806040523480156200001157600080fd5b50604051620034fe380380620034fe83398101604081905262000034916200046d565b6040518060400160405280600c81526020016b5265616c744c6f747465727960a01b8152506040518060400160405280600381526020016214951360ea1b8152506200008f620000896200025260201b60201c565b62000256565b60016200009d838262000604565b506002620000ac828262000604565b50505060005b855181101562000205576040518060400160405280868381518110620000dc57620000dc620006d0565b6020026020010151815260200160006001600160401b0381111562000105576200010562000365565b6040519080825280602002602001820160405280156200012f578160200160208202803683370190505b50815250600860008884815181106200014c576200014c620006d0565b60200260200101516001600160a01b03166001600160a01b031681526020019081526020016000206000820151816000015560208201518160010190805190602001906200019c929190620002a6565b509050506007868281518110620001b757620001b7620006d0565b60209081029190910181015182546001810184556000938452919092200180546001600160a01b0319166001600160a01b03909216919091179055620001fd81620006e6565b9050620000b2565b5082516200021b90600c906020860190620002f6565b50600d91909155620891c0600e55600f80546001600160a01b0319166001600160a01b03909216919091179055506200070e915050565b3390565b600080546001600160a01b038381166001600160a01b0319831681178455604051919092169283917f8be0079c531659141344cd1fd0a4f28419497f9722a3daafe3b4186f6b6457e09190a35050565b828054828255906000526020600020908101928215620002e4579160200282015b82811115620002e4578251825591602001919060010190620002c7565b50620002f29291506200034e565b5090565b828054828255906000526020600020908101928215620002e4579160200282015b82811115620002e457825182546001600160a01b0319166001600160a01b0390911617825560209092019160019091019062000317565b5b80821115620002f257600081556001016200034f565b634e487b7160e01b600052604160045260246000fd5b604051601f8201601f191681016001600160401b0381118282101715620003a657620003a662000365565b604052919050565b60006001600160401b03821115620003ca57620003ca62000365565b5060051b60200190565b80516001600160a01b0381168114620003ec57600080fd5b919050565b600082601f8301126200040357600080fd5b815160206200041c6200041683620003ae565b6200037b565b82815260059290921b840181019181810190868411156200043c57600080fd5b8286015b8481101562000462576200045481620003d4565b835291830191830162000440565b509695505050505050565b600080600080600060a086880312156200048657600080fd5b85516001600160401b03808211156200049e57600080fd5b620004ac89838a01620003f1565b9650602091508188015181811115620004c457600080fd5b8801601f81018a13620004d657600080fd5b8051620004e76200041682620003ae565b81815260059190911b8201840190848101908c8311156200050757600080fd5b928501925b8284101562000527578351825292850192908501906200050c565b60408c01519099509450505050808211156200054257600080fd5b506200055188828901620003f1565b935050606086015191506200056960808701620003d4565b90509295509295909350565b600181811c908216806200058a57607f821691505b602082108103620005ab57634e487b7160e01b600052602260045260246000fd5b50919050565b601f821115620005ff57600081815260208120601f850160051c81016020861015620005da5750805b601f850160051c820191505b81811015620005fb57828155600101620005e6565b5050505b505050565b81516001600160401b0381111562000620576200062062000365565b620006388162000631845462000575565b84620005b1565b602080601f831160018114620006705760008415620006575750858301515b600019600386901b1c1916600185901b178555620005fb565b600085815260208120601f198616915b82811015620006a15788860151825594840194600190910190840162000680565b5085821015620006c05787850151600019600388901b60f8161c191681555b5050505050600190811b01905550565b634e487b7160e01b600052603260045260246000fd5b6000600182016200070757634e487b7160e01b600052601160045260246000fd5b5060010190565b612de0806200071e6000396000f3fe60806040526004361061021e5760003560e01c8063715018a611610123578063b675b332116100ab578063e48603391161006f578063e48603391461068a578063e985e9c5146106b7578063f2f046fd146106d7578063f2fde38b146106f7578063f5a9d5bb1461071757600080fd5b8063b675b332146105fe578063b88d4fde14610614578063bc06c4cc14610634578063c31eb2631461064a578063c87b56dd1461066a57600080fd5b806395d89b41116100f257806395d89b411461058c578063a22cb465146105a1578063a57848b6146105c1578063a73d2a5a146105c9578063acb33bf9146105de57600080fd5b8063715018a614610519578063766c49c71461052e5780638da5cb5b1461054e5780638de9bd1a1461056c57600080fd5b806327eef8b9116101a657806342842e0e1161017557806342842e0e1461040e57806350b447121461042e5780636352211e146104b95780636a078b83146104d957806370a08231146104f957600080fd5b806327eef8b91461039857806334f5dd43146103b857806336615eb0146103d8578063372263d9146103ee57600080fd5b8063095ea7b3116101ed578063095ea7b3146102dd578063150b7a02146102ff57806318c08f26146103385780631b1e70a11461035857806323b872dd1461037857600080fd5b806301ffc9a71461022a57806306d680991461025f57806306fdde0314610283578063081812fc146102a557600080fd5b3661022557005b600080fd5b34801561023657600080fd5b5061024a6102453660046125ae565b610737565b60405190151581526020015b60405180910390f35b34801561026b57600080fd5b50610275600a5481565b604051908152602001610256565b34801561028f57600080fd5b50610298610789565b604051610256919061261b565b3480156102b157600080fd5b506102c56102c036600461262e565b61081b565b6040516001600160a01b039091168152602001610256565b3480156102e957600080fd5b506102fd6102f8366004612663565b610842565b005b34801561030b57600080fd5b5061031f61031a3660046126d4565b61095c565b6040516001600160e01b03199091168152602001610256565b34801561034457600080fd5b506102fd610353366004612823565b61096d565b34801561036457600080fd5b506102fd6103733660046128ba565b610c9c565b34801561038457600080fd5b506102fd61039336600461298f565b610f3d565b3480156103a457600080fd5b50600f546102c5906001600160a01b031681565b3480156103c457600080fd5b506102fd6103d33660046129cb565b610f6e565b3480156103e457600080fd5b5061027560105481565b3480156103fa57600080fd5b506102c561040936600461262e565b610f89565b34801561041a57600080fd5b506102fd61042936600461298f565b610fb3565b34801561043a57600080fd5b5061048561044936600461262e565b600960205260009081526040902080546001820154600283015460038401546004909401546001600160a01b0390931693919290919060ff1685565b604080516001600160a01b03909616865260208601949094529284019190915260608301521515608082015260a001610256565b3480156104c557600080fd5b506102c56104d436600461262e565b610fce565b3480156104e557600080fd5b506102fd6104f4366004612823565b61102e565b34801561050557600080fd5b50610275610514366004612a00565b61126b565b34801561052557600080fd5b506102fd6112f1565b34801561053a57600080fd5b5061027561054936600461262e565b611305565b34801561055a57600080fd5b506000546001600160a01b03166102c5565b34801561057857600080fd5b506102fd610587366004612a00565b6114ed565b34801561059857600080fd5b50610298611517565b3480156105ad57600080fd5b506102fd6105bc366004612a29565b611526565b6102fd611531565b3480156105d557600080fd5b506102fd611658565b3480156105ea57600080fd5b506102c56105f936600461262e565b6118b0565b34801561060a57600080fd5b50610275600d5481565b34801561062057600080fd5b506102fd61062f3660046126d4565b6118c0565b34801561064057600080fd5b50610275600e5481565b34801561065657600080fd5b506102fd610665366004612a60565b6118f8565b34801561067657600080fd5b5061029861068536600461262e565b611968565b34801561069657600080fd5b506102756106a5366004612a00565b60086020526000908152604090205481565b3480156106c357600080fd5b5061024a6106d2366004612ac4565b6119dc565b3480156106e357600080fd5b506102fd6106f2366004612a60565b611a0a565b34801561070357600080fd5b506102fd610712366004612a00565b611b50565b34801561072357600080fd5b506102fd61073236600461262e565b611bc6565b60006001600160e01b031982166380ac58cd60e01b148061076857506001600160e01b03198216635b5e139f60e01b145b8061078357506301ffc9a760e01b6001600160e01b03198316145b92915050565b60606001805461079890612af7565b80601f01602080910402602001604051908101604052809291908181526020018280546107c490612af7565b80156108115780601f106107e657610100808354040283529160200191610811565b820191906000526020600020905b8154815290600101906020018083116107f457829003601f168201915b5050505050905090565b600061082682611bd3565b506000908152600560205260409020546001600160a01b031690565b600061084d82610fce565b9050806001600160a01b0316836001600160a01b0316036108bf5760405162461bcd60e51b815260206004820152602160248201527f4552433732313a20617070726f76616c20746f2063757272656e74206f776e656044820152603960f91b60648201526084015b60405180910390fd5b336001600160a01b03821614806108db57506108db81336119dc565b61094d5760405162461bcd60e51b815260206004820152603d60248201527f4552433732313a20617070726f76652063616c6c6572206973206e6f7420746f60448201527f6b656e206f776e6572206f7220617070726f76656420666f7220616c6c00000060648201526084016108b6565b6109578383611c32565b505050565b630a85bd0160e11b5b949350505050565b60005b8151811015610c9857336001600160a01b03166109a583838151811061099857610998612b31565b6020026020010151610fce565b6001600160a01b031603610c5a576000600960008484815181106109cb576109cb612b31565b6020908102919091018101518252818101929092526040908101600020815160a08101835281546001600160a01b03168152600182015493810193909352600281015491830191909152600381015460608301526004015460ff16151560808201528351909150610a5590849084908110610a4857610a48612b31565b6020026020010151611ca0565b60096000848481518110610a6b57610a6b612b31565b6020908102919091018101518252810191909152604001600090812080546001600160a01b031916815560018101829055600281018290556003810191909155600401805460ff19169055608081015115610be55780516001600160a01b039081166000908152600860205260408082208451909316825281206001908101549192810191610afa9190612b5d565b81548110610b0a57610b0a612b31565b600091825260208083209091015460408086018051838652600985528286206002015586516001600160a01b03168552600890935290922090516001909101805492935083929091908110610b6157610b61612b31565b600091825260208083209091019290925583516001600160a01b03168152600890915260409020600101805480610b9a57610b9a612b70565b60008281526020808220830160001990810183905590920190925583516001600160a01b03168252600890526040812054600a805491929091610bde908490612b5d565b9091555050505b805160208201516040516323b872dd60e01b815230600482015233602482015260448101919091526001600160a01b03909116906323b872dd90606401600060405180830381600087803b158015610c3c57600080fd5b505af1158015610c50573d6000803e3d6000fd5b5050505050610c90565b818181518110610c6c57610c6c612b31565b6020026020010151604051634c3f0aa760e11b81526004016108b691815260200190565b600101610970565b5050565b60005b82518110156109575760086000848381518110610cbe57610cbe612b31565b60200260200101516001600160a01b03166001600160a01b0316815260200190815260200160002060000154600014610ef25760005b828281518110610d0657610d06612b31565b602002602001015151811015610eec57838281518110610d2857610d28612b31565b60200260200101516001600160a01b03166323b872dd3330868681518110610d5257610d52612b31565b60200260200101518581518110610d6b57610d6b612b31565b60209081029190910101516040516001600160e01b031960e086901b1681526001600160a01b0393841660048201529290911660248301526044820152606401600060405180830381600087803b158015610dc557600080fd5b505af1158015610dd9573d6000803e3d6000fd5b505050506040518060a00160405280858481518110610dfa57610dfa612b31565b60200260200101516001600160a01b03168152602001848481518110610e2257610e22612b31565b60200260200101518381518110610e3b57610e3b612b31565b60209081029190910181015182526000828201819052426040808501919091526060938401829052600b8054835260098452818320865181546001600160a01b0319166001600160a01b039091161781559386015160018501559085015160028401559284015160038301556080909301516004909101805460ff19169115159190911790558054610edc92339290610ed383612b86565b91905055611d35565b610ee581612b86565b9050610cf4565b50610f35565b828181518110610f0457610f04612b31565b60200260200101516040516306439c6b60e01b81526004016108b691906001600160a01b0391909116815260200190565b600101610c9f565b610f473382611d4f565b610f635760405162461bcd60e51b81526004016108b690612b9f565b610957838383611dad565b610f76611f11565b8051610c9890600c9060208401906124e3565b600c8181548110610f9957600080fd5b6000918252602090912001546001600160a01b0316905081565b610957838383604051806020016040528060008152506118c0565b6000818152600360205260408120546001600160a01b0316806107835760405162461bcd60e51b8152602060048201526018602482015277115490cdcc8c4e881a5b9d985b1a59081d1bdad95b88125160421b60448201526064016108b6565b60005b8151811015610c9857336001600160a01b031661105983838151811061099857610998612b31565b6001600160a01b031603610c5a5760006009600084848151811061107f5761107f612b31565b6020908102919091018101518252818101929092526040908101600020815160a08101835281546001600160a01b03168152600182015493810193909352600281015491830191909152600381015460608301526004015460ff1615801560808301819052919250906111025750600e5460608201516110ff9042612b5d565b10155b1561122c5760016080820181905281516001600160a01b03908116600090815260086020818152604080842086015481880152865190941683525220845191019084908490811061115557611155612b31565b60209081029190910181015182546001810184556000938452918320909101558351829160099186908690811061118e5761118e612b31565b60209081029190910181015182528181019290925260409081016000908120845181546001600160a01b0319166001600160a01b03918216178255858501516001830155858401516002830155606086015160038301556080909501516004909101805460ff1916911515919091179055845190931683526008909152812054600a805491929091611221908490612bec565b909155506112629050565b82828151811061123e5761123e612b31565b602002602001015160405163aaf5034b60e01b81526004016108b691815260200190565b50600101611031565b60006001600160a01b0382166112d55760405162461bcd60e51b815260206004820152602960248201527f4552433732313a2061646472657373207a65726f206973206e6f7420612076616044820152683634b21037bbb732b960b91b60648201526084016108b6565b506001600160a01b031660009081526004602052604090205490565b6112f9611f11565b6113036000611f6b565b565b6000805b600754811015611424576000600860006007848154811061132c5761132c612b31565b60009182526020808320909101546001600160a01b031683528281019390935260409182019020815180830183528154815260018201805484518187028101870190955280855291949293858401939092908301828280156113ad57602002820191906000526020600020905b815481526020019060010190808311611399575b5050505050815250509050600081600001518260200151516113cf9190612bff565b90508085101561140f57602082015182516113ea9087612c2c565b955085815181106113fd576113fd612b31565b60200260200101519350505050919050565b909303925061141d81612b86565b9050611309565b506007805460089160009161143b90600190612b5d565b8154811061144b5761144b612b31565b60009182526020808320909101546001600160a01b031683528201929092526040018120600780546001928301936008929091611489908590612b5d565b8154811061149957611499612b31565b60009182526020808320909101546001600160a01b031683528201929092526040019020600101546114cb9190612b5d565b815481106114db576114db612b31565b90600052602060002001549050919050565b6114f5611f11565b600f80546001600160a01b0319166001600160a01b0392909216919091179055565b60606002805461079890612af7565b610c98338383611fbb565b600d5442101561155457604051630313ce3760e41b815260040160405180910390fd5b43601055600e546115659042612bec565b600d55600f54604080516334cd994560e11b815290516000926001600160a01b03169163699b328a913491600480820192602092909190829003018185885af11580156115b6573d6000803e3d6000fd5b50505050506040513d601f19601f820116820180604052508101906115db9190612c40565b905034811015611655576000336115f28334612b5d565b604051600081818185875af1925050503d806000811461162e576040519150601f19603f3d011682016040523d82523d6000602084013e611633565b606091505b5050905080610c9857604051630185aa0b60e21b815260040160405180910390fd5b50565b60105460000361167b57604051630e1a0b9360e31b815260040160405180910390fd5b600a54600f5460105460405163fb476cad60e01b81526004810191909152600092916001600160a01b03169063fb476cad90602401602060405180830381865afa1580156116cd573d6000803e3d6000fd5b505050506040513d601f19601f820116820180604052508101906116f19190612c40565b6116fb9190612c59565b6000601081905590915061170e82611305565b9050600061171b82610fce565b905060005b600c54811015611859576000600c828154811061173f5761173f612b31565b6000918252602090912001546040516370a0823160e01b81523060048201526001600160a01b03909116906370a0823190602401602060405180830381865afa158015611790573d6000803e3d6000fd5b505050506040513d601f19601f820116820180604052508101906117b49190612c40565b9050600c82815481106117c9576117c9612b31565b6000918252602090912001546040516323b872dd60e01b81523060048201526001600160a01b03858116602483015260448201849052909116906323b872dd906064016020604051808303816000875af115801561182b573d6000803e3d6000fd5b505050506040513d601f19601f8201168201806040525081019061184f9190612c6d565b5050600101611720565b506040516001600160a01b038216904790600081818185875af1925050503d80600081146118a3576040519150601f19603f3d011682016040523d82523d6000602084013e6118a8565b606091505b505050505050565b60078181548110610f9957600080fd5b6118ca3383611d4f565b6118e65760405162461bcd60e51b81526004016108b690612b9f565b6118f284848484612089565b50505050565b611900611f11565b60005b82518110156109575781818151811061191e5761191e612b31565b60200260200101516008600085848151811061193c5761193c612b31565b6020908102919091018101516001600160a01b0316825281019190915260400160002055600101611903565b606061197382611bd3565b600061198a60408051602081019091526000815290565b905060008151116119aa57604051806020016040528060008152506119d5565b806119b4846120bc565b6040516020016119c5929190612c8a565b6040516020818303038152906040525b9392505050565b6001600160a01b03918216600090815260066020908152604080832093909416825291909152205460ff1690565b611a12611f11565b60005b8251811015610957576040518060400160405280838381518110611a3b57611a3b612b31565b60200260200101518152602001600067ffffffffffffffff811115611a6257611a6261268d565b604051908082528060200260200182016040528015611a8b578160200160208202803683370190505b5081525060086000858481518110611aa557611aa5612b31565b60200260200101516001600160a01b03166001600160a01b03168152602001908152602001600020600082015181600001556020820151816001019080519060200190611af3929190612548565b509050506007838281518110611b0b57611b0b612b31565b60209081029190910181015182546001808201855560009485529290932090920180546001600160a01b0319166001600160a01b039093169290921790915501611a15565b611b58611f11565b6001600160a01b038116611bbd5760405162461bcd60e51b815260206004820152602660248201527f4f776e61626c653a206e6577206f776e657220697320746865207a65726f206160448201526564647265737360d01b60648201526084016108b6565b61165581611f6b565b611bce611f11565b600e55565b6000818152600360205260409020546001600160a01b03166116555760405162461bcd60e51b8152602060048201526018602482015277115490cdcc8c4e881a5b9d985b1a59081d1bdad95b88125160421b60448201526064016108b6565b600081815260056020526040902080546001600160a01b0319166001600160a01b0384169081179091558190611c6782610fce565b6001600160a01b03167f8c5be1e5ebec7d5bd14f71427d1e84f3dd0314c0f7b2291e5b200ac8c7c3b92560405160405180910390a45050565b6000611cab82610fce565b9050611cb682610fce565b600083815260056020908152604080832080546001600160a01b03199081169091556001600160a01b0385168085526004845282852080546000190190558785526003909352818420805490911690555192935084927fddf252ad1be2c89b69c2b068fc378daa952ba7f163c4a11628f55a4df523b3ef908390a45050565b610c9882826040518060200160405280600081525061214f565b600080611d5b83610fce565b9050806001600160a01b0316846001600160a01b03161480611d825750611d8281856119dc565b806109655750836001600160a01b0316611d9b8461081b565b6001600160a01b031614949350505050565b826001600160a01b0316611dc082610fce565b6001600160a01b031614611de65760405162461bcd60e51b81526004016108b690612cb9565b6001600160a01b038216611e485760405162461bcd60e51b8152602060048201526024808201527f4552433732313a207472616e7366657220746f20746865207a65726f206164646044820152637265737360e01b60648201526084016108b6565b826001600160a01b0316611e5b82610fce565b6001600160a01b031614611e815760405162461bcd60e51b81526004016108b690612cb9565b600081815260056020908152604080832080546001600160a01b03199081169091556001600160a01b0387811680865260048552838620805460001901905590871680865283862080546001019055868652600390945282852080549092168417909155905184937fddf252ad1be2c89b69c2b068fc378daa952ba7f163c4a11628f55a4df523b3ef91a4505050565b6000546001600160a01b031633146113035760405162461bcd60e51b815260206004820181905260248201527f4f776e61626c653a2063616c6c6572206973206e6f7420746865206f776e657260448201526064016108b6565b600080546001600160a01b038381166001600160a01b0319831681178455604051919092169283917f8be0079c531659141344cd1fd0a4f28419497f9722a3daafe3b4186f6b6457e09190a35050565b816001600160a01b0316836001600160a01b03160361201c5760405162461bcd60e51b815260206004820152601960248201527f4552433732313a20617070726f766520746f2063616c6c65720000000000000060448201526064016108b6565b6001600160a01b03838116600081815260066020908152604080832094871680845294825291829020805460ff191686151590811790915591519182527f17307eab39ab6107e8899845ad3d59bd9653f200f220920489ca2b5937696c31910160405180910390a3505050565b612094848484611dad565b6120a084848484612182565b6118f25760405162461bcd60e51b81526004016108b690612cfe565b606060006120c983612280565b600101905060008167ffffffffffffffff8111156120e9576120e961268d565b6040519080825280601f01601f191660200182016040528015612113576020820181803683370190505b5090508181016020015b600019016f181899199a1a9b1b9c1cb0b131b232b360811b600a86061a8153600a850494508461211d57509392505050565b6121598383612358565b6121666000848484612182565b6109575760405162461bcd60e51b81526004016108b690612cfe565b60006001600160a01b0384163b1561227857604051630a85bd0160e11b81526001600160a01b0385169063150b7a02906121c6903390899088908890600401612d50565b6020604051808303816000875af1925050508015612201575060408051601f3d908101601f191682019092526121fe91810190612d8d565b60015b61225e573d80801561222f576040519150601f19603f3d011682016040523d82523d6000602084013e612234565b606091505b5080516000036122565760405162461bcd60e51b81526004016108b690612cfe565b805181602001fd5b6001600160e01b031916630a85bd0160e11b149050610965565b506001610965565b60008072184f03e93ff9f4daa797ed6e38ed64bf6a1f0160401b83106122bf5772184f03e93ff9f4daa797ed6e38ed64bf6a1f0160401b830492506040015b6d04ee2d6d415b85acef810000000083106122eb576d04ee2d6d415b85acef8100000000830492506020015b662386f26fc10000831061230957662386f26fc10000830492506010015b6305f5e1008310612321576305f5e100830492506008015b612710831061233557612710830492506004015b60648310612347576064830492506002015b600a83106107835760010192915050565b6001600160a01b0382166123ae5760405162461bcd60e51b815260206004820181905260248201527f4552433732313a206d696e7420746f20746865207a65726f206164647265737360448201526064016108b6565b6000818152600360205260409020546001600160a01b0316156124135760405162461bcd60e51b815260206004820152601c60248201527f4552433732313a20746f6b656e20616c7265616479206d696e7465640000000060448201526064016108b6565b6000818152600360205260409020546001600160a01b0316156124785760405162461bcd60e51b815260206004820152601c60248201527f4552433732313a20746f6b656e20616c7265616479206d696e7465640000000060448201526064016108b6565b6001600160a01b038216600081815260046020908152604080832080546001019055848352600390915280822080546001600160a01b0319168417905551839291907fddf252ad1be2c89b69c2b068fc378daa952ba7f163c4a11628f55a4df523b3ef908290a45050565b828054828255906000526020600020908101928215612538579160200282015b8281111561253857825182546001600160a01b0319166001600160a01b03909116178255602090920191600190910190612503565b50612544929150612583565b5090565b828054828255906000526020600020908101928215612538579160200282015b82811115612538578251825591602001919060010190612568565b5b808211156125445760008155600101612584565b6001600160e01b03198116811461165557600080fd5b6000602082840312156125c057600080fd5b81356119d581612598565b60005b838110156125e65781810151838201526020016125ce565b50506000910152565b600081518084526126078160208601602086016125cb565b601f01601f19169290920160200192915050565b6020815260006119d560208301846125ef565b60006020828403121561264057600080fd5b5035919050565b80356001600160a01b038116811461265e57600080fd5b919050565b6000806040838503121561267657600080fd5b61267f83612647565b946020939093013593505050565b634e487b7160e01b600052604160045260246000fd5b604051601f8201601f1916810167ffffffffffffffff811182821017156126cc576126cc61268d565b604052919050565b600080600080608085870312156126ea57600080fd5b6126f385612647565b93506020612702818701612647565b935060408601359250606086013567ffffffffffffffff8082111561272657600080fd5b818801915088601f83011261273a57600080fd5b81358181111561274c5761274c61268d565b61275e601f8201601f191685016126a3565b9150808252898482850101111561277457600080fd5b808484018584013760008482840101525080935050505092959194509250565b600067ffffffffffffffff8211156127ae576127ae61268d565b5060051b60200190565b600082601f8301126127c957600080fd5b813560206127de6127d983612794565b6126a3565b82815260059290921b840181019181810190868411156127fd57600080fd5b8286015b848110156128185780358352918301918301612801565b509695505050505050565b60006020828403121561283557600080fd5b813567ffffffffffffffff81111561284c57600080fd5b610965848285016127b8565b600082601f83011261286957600080fd5b813560206128796127d983612794565b82815260059290921b8401810191818101908684111561289857600080fd5b8286015b84811015612818576128ad81612647565b835291830191830161289c565b600080604083850312156128cd57600080fd5b823567ffffffffffffffff808211156128e557600080fd5b6128f186838701612858565b935060209150818501358181111561290857600080fd5b8501601f8101871361291957600080fd5b80356129276127d982612794565b81815260059190911b8201840190848101908983111561294657600080fd5b8584015b8381101561297e578035868111156129625760008081fd5b6129708c89838901016127b8565b84525091860191860161294a565b508096505050505050509250929050565b6000806000606084860312156129a457600080fd5b6129ad84612647565b92506129bb60208501612647565b9150604084013590509250925092565b6000602082840312156129dd57600080fd5b813567ffffffffffffffff8111156129f457600080fd5b61096584828501612858565b600060208284031215612a1257600080fd5b6119d582612647565b801515811461165557600080fd5b60008060408385031215612a3c57600080fd5b612a4583612647565b91506020830135612a5581612a1b565b809150509250929050565b60008060408385031215612a7357600080fd5b823567ffffffffffffffff80821115612a8b57600080fd5b612a9786838701612858565b93506020850135915080821115612aad57600080fd5b50612aba858286016127b8565b9150509250929050565b60008060408385031215612ad757600080fd5b612ae083612647565b9150612aee60208401612647565b90509250929050565b600181811c90821680612b0b57607f821691505b602082108103612b2b57634e487b7160e01b600052602260045260246000fd5b50919050565b634e487b7160e01b600052603260045260246000fd5b634e487b7160e01b600052601160045260246000fd5b8181038181111561078357610783612b47565b634e487b7160e01b600052603160045260246000fd5b600060018201612b9857612b98612b47565b5060010190565b6020808252602d908201527f4552433732313a2063616c6c6572206973206e6f7420746f6b656e206f776e6560408201526c1c881bdc88185c1c1c9bdd9959609a1b606082015260800190565b8082018082111561078357610783612b47565b808202811582820484141761078357610783612b47565b634e487b7160e01b600052601260045260246000fd5b600082612c3b57612c3b612c16565b500490565b600060208284031215612c5257600080fd5b5051919050565b600082612c6857612c68612c16565b500690565b600060208284031215612c7f57600080fd5b81516119d581612a1b565b60008351612c9c8184602088016125cb565b835190830190612cb08183602088016125cb565b01949350505050565b60208082526025908201527f4552433732313a207472616e736665722066726f6d20696e636f72726563742060408201526437bbb732b960d91b606082015260800190565b60208082526032908201527f4552433732313a207472616e7366657220746f206e6f6e20455243373231526560408201527131b2b4bb32b91034b6b83632b6b2b73a32b960711b606082015260800190565b6001600160a01b0385811682528416602082015260408101839052608060608201819052600090612d83908301846125ef565b9695505050505050565b600060208284031215612d9f57600080fd5b81516119d58161259856fea26469706673582212200ad3603903761a060016c2655ad65cdbf559b24953390e1da219ac6cea9240ce64736f6c63430008140033",
        "linkReferences": {}
    },
    "methodIdentifiers": {
        "addTokens(address[],uint256[])": "f2f046fd",
        "approve(address,uint256)": "095ea7b3",
        "balanceOf(address)": "70a08231",
        "doDraw()": "a73d2a5a",
        "drawInterval()": "bc06c4cc",
        "enter(address[],uint256[][])": "1b1e70a1",
        "exit(uint256[])": "18c08f26",
        "findRandomNFT(uint256)": "766c49c7",
        "getApproved(uint256)": "081812fc",
        "interestsCumulated()": "06d68099",
        "isApprovedForAll(address,address)": "e985e9c5",
        "name()": "06fdde03",
        "nextDrawTimestamp()": "b675b332",
        "onERC721Received(address,address,uint256,bytes)": "150b7a02",
        "owner()": "8da5cb5b",
        "ownerOf(uint256)": "6352211e",
        "renounceOwnership()": "715018a6",
        "rentTokens(uint256)": "372263d9",
        "requestDraw()": "a57848b6",
        "safeTransferFrom(address,address,uint256)": "42842e0e",
        "safeTransferFrom(address,address,uint256,bytes)": "b88d4fde",
        "setApprovalForAll(address,bool)": "a22cb465",
        "setDrawInterval(uint256)": "f5a9d5bb",
        "setInterests(address[],uint256[])": "c31eb263",
        "setRentTokens(address[])": "34f5dd43",
        "setWitnet(address)": "8de9bd1a",
        "stack(uint256[])": "6a078b83",
        "supportsInterface(bytes4)": "01ffc9a7",
        "symbol()": "95d89b41",
        "tickets(uint256)": "50b44712",
        "tokenURI(uint256)": "c87b56dd",
        "tokens(address)": "e4860339",
        "tokensSupported(uint256)": "acb33bf9",
        "transferFrom(address,address,uint256)": "23b872dd",
        "transferOwnership(address)": "f2fde38b",
        "witnetRandomness()": "27eef8b9",
        "witnetRandomnessBlock()": "36615eb0"
    },
    "id": 34
}