{
  "abi": [
    {
      "inputs": [
        {
          "internalType": "address[]",
          "name": "_tokens",
          "type": "address[]"
        },
        {
          "internalType": "uint256[]",
          "name": "_interests",
          "type": "uint256[]"
        },
        {
          "internalType": "address[]",
          "name": "_rentTokens",
          "type": "address[]"
        },
        {
          "internalType": "uint256",
          "name": "_nextDraw",
          "type": "uint256"
        },
        {
          "internalType": "address",
          "name": "_witnet",
          "type": "address"
        }
      ],
      "stateMutability": "nonpayable",
      "type": "constructor"
    },
    {
      "inputs": [],
      "name": "CouldNotRefund",
      "type": "error"
    },
    {
      "inputs": [],
      "name": "DrawTooEarly",
      "type": "error"
    },
    {
      "inputs": [],
      "name": "NoRandomness",
      "type": "error"
    },
    {
      "inputs": [
        {
          "internalType": "uint256",
          "name": "ticket",
          "type": "uint256"
        }
      ],
      "name": "NotTicketOwner",
      "type": "error"
    },
    {
      "inputs": [
        {
          "internalType": "uint256",
          "name": "ticket",
          "type": "uint256"
        }
      ],
      "name": "TicketNotReady",
      "type": "error"
    },
    {
      "inputs": [
        {
          "internalType": "address",
          "name": "token",
          "type": "address"
        }
      ],
      "name": "TokenNotSupported",
      "type": "error"
    },
    {
      "anonymous": false,
      "inputs": [
        {
          "indexed": true,
          "internalType": "address",
          "name": "owner",
          "type": "address"
        },
        {
          "indexed": true,
          "internalType": "address",
          "name": "approved",
          "type": "address"
        },
        {
          "indexed": true,
          "internalType": "uint256",
          "name": "tokenId",
          "type": "uint256"
        }
      ],
      "name": "Approval",
      "type": "event"
    },
    {
      "anonymous": false,
      "inputs": [
        {
          "indexed": true,
          "internalType": "address",
          "name": "owner",
          "type": "address"
        },
        {
          "indexed": true,
          "internalType": "address",
          "name": "operator",
          "type": "address"
        },
        {
          "indexed": false,
          "internalType": "bool",
          "name": "approved",
          "type": "bool"
        }
      ],
      "name": "ApprovalForAll",
      "type": "event"
    },
    {
      "anonymous": false,
      "inputs": [
        {
          "indexed": true,
          "internalType": "address",
          "name": "previousOwner",
          "type": "address"
        },
        {
          "indexed": true,
          "internalType": "address",
          "name": "newOwner",
          "type": "address"
        }
      ],
      "name": "OwnershipTransferred",
      "type": "event"
    },
    {
      "anonymous": false,
      "inputs": [
        {
          "indexed": true,
          "internalType": "address",
          "name": "from",
          "type": "address"
        },
        {
          "indexed": true,
          "internalType": "address",
          "name": "to",
          "type": "address"
        },
        {
          "indexed": true,
          "internalType": "uint256",
          "name": "tokenId",
          "type": "uint256"
        }
      ],
      "name": "Transfer",
      "type": "event"
    },
    {
      "inputs": [
        {
          "internalType": "address[]",
          "name": "_tokens",
          "type": "address[]"
        },
        {
          "internalType": "uint256[]",
          "name": "_interests",
          "type": "uint256[]"
        }
      ],
      "name": "addTokens",
      "outputs": [],
      "stateMutability": "nonpayable",
      "type": "function"
    },
    {
      "inputs": [
        {
          "internalType": "address",
          "name": "to",
          "type": "address"
        },
        {
          "internalType": "uint256",
          "name": "tokenId",
          "type": "uint256"
        }
      ],
      "name": "approve",
      "outputs": [],
      "stateMutability": "nonpayable",
      "type": "function"
    },
    {
      "inputs": [
        {
          "internalType": "address",
          "name": "owner",
          "type": "address"
        }
      ],
      "name": "balanceOf",
      "outputs": [
        {
          "internalType": "uint256",
          "name": "",
          "type": "uint256"
        }
      ],
      "stateMutability": "view",
      "type": "function"
    },
    {
      "inputs": [],
      "name": "doDraw",
      "outputs": [],
      "stateMutability": "nonpayable",
      "type": "function"
    },
    {
      "inputs": [],
      "name": "drawInterval",
      "outputs": [
        {
          "internalType": "uint256",
          "name": "",
          "type": "uint256"
        }
      ],
      "stateMutability": "view",
      "type": "function"
    },
    {
      "inputs": [
        {
          "internalType": "address[]",
          "name": "_tokens",
          "type": "address[]"
        },
        {
          "internalType": "uint256[][]",
          "name": "_ids",
          "type": "uint256[][]"
        }
      ],
      "name": "enter",
      "outputs": [],
      "stateMutability": "nonpayable",
      "type": "function"
    },
    {
      "inputs": [
        {
          "internalType": "uint256[]",
          "name": "_ids",
          "type": "uint256[]"
        }
      ],
      "name": "exit",
      "outputs": [],
      "stateMutability": "nonpayable",
      "type": "function"
    },
    {
      "inputs": [
        {
          "internalType": "uint256",
          "name": "_randomness",
          "type": "uint256"
        }
      ],
      "name": "findRandomNFT",
      "outputs": [
        {
          "internalType": "uint256",
          "name": "",
          "type": "uint256"
        }
      ],
      "stateMutability": "view",
      "type": "function"
    },
    {
      "inputs": [
        {
          "internalType": "uint256",
          "name": "tokenId",
          "type": "uint256"
        }
      ],
      "name": "getApproved",
      "outputs": [
        {
          "internalType": "address",
          "name": "",
          "type": "address"
        }
      ],
      "stateMutability": "view",
      "type": "function"
    },
    {
      "inputs": [],
      "name": "getTokensSupported",
      "outputs": [
        {
          "internalType": "address[]",
          "name": "",
          "type": "address[]"
        }
      ],
      "stateMutability": "view",
      "type": "function"
    },
    {
      "inputs": [],
      "name": "interestsCumulated",
      "outputs": [
        {
          "internalType": "uint256",
          "name": "",
          "type": "uint256"
        }
      ],
      "stateMutability": "view",
      "type": "function"
    },
    {
      "inputs": [
        {
          "internalType": "address",
          "name": "owner",
          "type": "address"
        },
        {
          "internalType": "address",
          "name": "operator",
          "type": "address"
        }
      ],
      "name": "isApprovedForAll",
      "outputs": [
        {
          "internalType": "bool",
          "name": "",
          "type": "bool"
        }
      ],
      "stateMutability": "view",
      "type": "function"
    },
    {
      "inputs": [],
      "name": "lastPrize",
      "outputs": [
        {
          "internalType": "uint256",
          "name": "",
          "type": "uint256"
        }
      ],
      "stateMutability": "view",
      "type": "function"
    },
    {
      "inputs": [],
      "name": "lastWinner",
      "outputs": [
        {
          "internalType": "address",
          "name": "",
          "type": "address"
        }
      ],
      "stateMutability": "view",
      "type": "function"
    },
    {
      "inputs": [],
      "name": "name",
      "outputs": [
        {
          "internalType": "string",
          "name": "",
          "type": "string"
        }
      ],
      "stateMutability": "view",
      "type": "function"
    },
    {
      "inputs": [],
      "name": "nextDrawTimestamp",
      "outputs": [
        {
          "internalType": "uint256",
          "name": "",
          "type": "uint256"
        }
      ],
      "stateMutability": "view",
      "type": "function"
    },
    {
      "inputs": [
        {
          "internalType": "address",
          "name": "",
          "type": "address"
        },
        {
          "internalType": "address",
          "name": "",
          "type": "address"
        },
        {
          "internalType": "uint256",
          "name": "",
          "type": "uint256"
        },
        {
          "internalType": "bytes",
          "name": "",
          "type": "bytes"
        }
      ],
      "name": "onERC721Received",
      "outputs": [
        {
          "internalType": "bytes4",
          "name": "",
          "type": "bytes4"
        }
      ],
      "stateMutability": "nonpayable",
      "type": "function"
    },
    {
      "inputs": [],
      "name": "owner",
      "outputs": [
        {
          "internalType": "address",
          "name": "",
          "type": "address"
        }
      ],
      "stateMutability": "view",
      "type": "function"
    },
    {
      "inputs": [
        {
          "internalType": "uint256",
          "name": "tokenId",
          "type": "uint256"
        }
      ],
      "name": "ownerOf",
      "outputs": [
        {
          "internalType": "address",
          "name": "",
          "type": "address"
        }
      ],
      "stateMutability": "view",
      "type": "function"
    },
    {
      "inputs": [],
      "name": "prizeToBeWon",
      "outputs": [
        {
          "internalType": "uint256",
          "name": "",
          "type": "uint256"
        }
      ],
      "stateMutability": "view",
      "type": "function"
    },
    {
      "inputs": [],
      "name": "renounceOwnership",
      "outputs": [],
      "stateMutability": "nonpayable",
      "type": "function"
    },
    {
      "inputs": [
        {
          "internalType": "uint256",
          "name": "",
          "type": "uint256"
        }
      ],
      "name": "rentTokens",
      "outputs": [
        {
          "internalType": "address",
          "name": "",
          "type": "address"
        }
      ],
      "stateMutability": "view",
      "type": "function"
    },
    {
      "inputs": [],
      "name": "requestDraw",
      "outputs": [],
      "stateMutability": "payable",
      "type": "function"
    },
    {
      "inputs": [
        {
          "internalType": "address",
          "name": "from",
          "type": "address"
        },
        {
          "internalType": "address",
          "name": "to",
          "type": "address"
        },
        {
          "internalType": "uint256",
          "name": "tokenId",
          "type": "uint256"
        }
      ],
      "name": "safeTransferFrom",
      "outputs": [],
      "stateMutability": "nonpayable",
      "type": "function"
    },
    {
      "inputs": [
        {
          "internalType": "address",
          "name": "from",
          "type": "address"
        },
        {
          "internalType": "address",
          "name": "to",
          "type": "address"
        },
        {
          "internalType": "uint256",
          "name": "tokenId",
          "type": "uint256"
        },
        {
          "internalType": "bytes",
          "name": "data",
          "type": "bytes"
        }
      ],
      "name": "safeTransferFrom",
      "outputs": [],
      "stateMutability": "nonpayable",
      "type": "function"
    },
    {
      "inputs": [
        {
          "internalType": "address",
          "name": "operator",
          "type": "address"
        },
        {
          "internalType": "bool",
          "name": "approved",
          "type": "bool"
        }
      ],
      "name": "setApprovalForAll",
      "outputs": [],
      "stateMutability": "nonpayable",
      "type": "function"
    },
    {
      "inputs": [
        {
          "internalType": "uint256",
          "name": "_interval",
          "type": "uint256"
        }
      ],
      "name": "setDrawInterval",
      "outputs": [],
      "stateMutability": "nonpayable",
      "type": "function"
    },
    {
      "inputs": [
        {
          "internalType": "address[]",
          "name": "_tokens",
          "type": "address[]"
        },
        {
          "internalType": "uint256[]",
          "name": "_interests",
          "type": "uint256[]"
        }
      ],
      "name": "setInterests",
      "outputs": [],
      "stateMutability": "nonpayable",
      "type": "function"
    },
    {
      "inputs": [
        {
          "internalType": "address[]",
          "name": "_rentTokens",
          "type": "address[]"
        }
      ],
      "name": "setRentTokens",
      "outputs": [],
      "stateMutability": "nonpayable",
      "type": "function"
    },
    {
      "inputs": [
        {
          "internalType": "address",
          "name": "_witnet",
          "type": "address"
        }
      ],
      "name": "setWitnet",
      "outputs": [],
      "stateMutability": "nonpayable",
      "type": "function"
    },
    {
      "inputs": [
        {
          "internalType": "uint256[]",
          "name": "_tickets",
          "type": "uint256[]"
        }
      ],
      "name": "stack",
      "outputs": [],
      "stateMutability": "nonpayable",
      "type": "function"
    },
    {
      "inputs": [
        {
          "internalType": "bytes4",
          "name": "interfaceId",
          "type": "bytes4"
        }
      ],
      "name": "supportsInterface",
      "outputs": [
        {
          "internalType": "bool",
          "name": "",
          "type": "bool"
        }
      ],
      "stateMutability": "view",
      "type": "function"
    },
    {
      "inputs": [],
      "name": "symbol",
      "outputs": [
        {
          "internalType": "string",
          "name": "",
          "type": "string"
        }
      ],
      "stateMutability": "view",
      "type": "function"
    },
    {
      "inputs": [
        {
          "internalType": "uint256",
          "name": "",
          "type": "uint256"
        }
      ],
      "name": "tickets",
      "outputs": [
        {
          "internalType": "address",
          "name": "token",
          "type": "address"
        },
        {
          "internalType": "uint256",
          "name": "id",
          "type": "uint256"
        },
        {
          "internalType": "uint256",
          "name": "indexInToken",
          "type": "uint256"
        },
        {
          "internalType": "uint256",
          "name": "enteredAt",
          "type": "uint256"
        },
        {
          "internalType": "bool",
          "name": "stacked",
          "type": "bool"
        }
      ],
      "stateMutability": "view",
      "type": "function"
    },
    {
      "inputs": [
        {
          "internalType": "uint256",
          "name": "tokenId",
          "type": "uint256"
        }
      ],
      "name": "tokenURI",
      "outputs": [
        {
          "internalType": "string",
          "name": "",
          "type": "string"
        }
      ],
      "stateMutability": "view",
      "type": "function"
    },
    {
      "inputs": [
        {
          "internalType": "address",
          "name": "",
          "type": "address"
        }
      ],
      "name": "tokens",
      "outputs": [
        {
          "internalType": "uint256",
          "name": "interests",
          "type": "uint256"
        }
      ],
      "stateMutability": "view",
      "type": "function"
    },
    {
      "inputs": [
        {
          "internalType": "address",
          "name": "from",
          "type": "address"
        },
        {
          "internalType": "address",
          "name": "to",
          "type": "address"
        },
        {
          "internalType": "uint256",
          "name": "tokenId",
          "type": "uint256"
        }
      ],
      "name": "transferFrom",
      "outputs": [],
      "stateMutability": "nonpayable",
      "type": "function"
    },
    {
      "inputs": [
        {
          "internalType": "address",
          "name": "newOwner",
          "type": "address"
        }
      ],
      "name": "transferOwnership",
      "outputs": [],
      "stateMutability": "nonpayable",
      "type": "function"
    },
    {
      "inputs": [],
      "name": "witnetRandomness",
      "outputs": [
        {
          "internalType": "contract IWitnetRandomness",
          "name": "",
          "type": "address"
        }
      ],
      "stateMutability": "view",
      "type": "function"
    },
    {
      "inputs": [],
      "name": "witnetRandomnessBlock",
      "outputs": [
        {
          "internalType": "uint256",
          "name": "",
          "type": "uint256"
        }
      ],
      "stateMutability": "view",
      "type": "function"
    },
    {
      "stateMutability": "payable",
      "type": "receive"
    }
  ],
  "bytecode": {
    "object": "0x60806040523480156200001157600080fd5b506040516200397d3803806200397d83398101604081905262000034916200046d565b6040518060400160405280600c81526020016b5265616c744c6f747465727960a01b8152506040518060400160405280600381526020016214951360ea1b8152506200008f620000896200025260201b60201c565b62000256565b60016200009d838262000604565b506002620000ac828262000604565b50505060005b855181101562000205576040518060400160405280868381518110620000dc57620000dc620006d0565b6020026020010151815260200160006001600160401b0381111562000105576200010562000365565b6040519080825280602002602001820160405280156200012f578160200160208202803683370190505b50815250600860008884815181106200014c576200014c620006d0565b60200260200101516001600160a01b03166001600160a01b031681526020019081526020016000206000820151816000015560208201518160010190805190602001906200019c929190620002a6565b509050506007868281518110620001b757620001b7620006d0565b60209081029190910181015182546001810184556000938452919092200180546001600160a01b0319166001600160a01b03909216919091179055620001fd81620006e6565b9050620000b2565b5082516200021b90600c906020860190620002f6565b50600d91909155620891c0600e55601180546001600160a01b0319166001600160a01b03909216919091179055506200070e915050565b3390565b600080546001600160a01b038381166001600160a01b0319831681178455604051919092169283917f8be0079c531659141344cd1fd0a4f28419497f9722a3daafe3b4186f6b6457e09190a35050565b828054828255906000526020600020908101928215620002e4579160200282015b82811115620002e4578251825591602001919060010190620002c7565b50620002f29291506200034e565b5090565b828054828255906000526020600020908101928215620002e4579160200282015b82811115620002e457825182546001600160a01b0319166001600160a01b0390911617825560209092019160019091019062000317565b5b80821115620002f257600081556001016200034f565b634e487b7160e01b600052604160045260246000fd5b604051601f8201601f191681016001600160401b0381118282101715620003a657620003a662000365565b604052919050565b60006001600160401b03821115620003ca57620003ca62000365565b5060051b60200190565b80516001600160a01b0381168114620003ec57600080fd5b919050565b600082601f8301126200040357600080fd5b815160206200041c6200041683620003ae565b6200037b565b82815260059290921b840181019181810190868411156200043c57600080fd5b8286015b8481101562000462576200045481620003d4565b835291830191830162000440565b509695505050505050565b600080600080600060a086880312156200048657600080fd5b85516001600160401b03808211156200049e57600080fd5b620004ac89838a01620003f1565b9650602091508188015181811115620004c457600080fd5b8801601f81018a13620004d657600080fd5b8051620004e76200041682620003ae565b81815260059190911b8201840190848101908c8311156200050757600080fd5b928501925b8284101562000527578351825292850192908501906200050c565b60408c01519099509450505050808211156200054257600080fd5b506200055188828901620003f1565b935050606086015191506200056960808701620003d4565b90509295509295909350565b600181811c908216806200058a57607f821691505b602082108103620005ab57634e487b7160e01b600052602260045260246000fd5b50919050565b601f821115620005ff57600081815260208120601f850160051c81016020861015620005da5750805b601f850160051c820191505b81811015620005fb57828155600101620005e6565b5050505b505050565b81516001600160401b0381111562000620576200062062000365565b620006388162000631845462000575565b84620005b1565b602080601f831160018114620006705760008415620006575750858301515b600019600386901b1c1916600185901b178555620005fb565b600085815260208120601f198616915b82811015620006a15788860151825594840194600190910190840162000680565b5085821015620006c05787850151600019600388901b60f8161c191681555b5050505050600190811b01905550565b634e487b7160e01b600052603260045260246000fd5b6000600182016200070757634e487b7160e01b600052601160045260246000fd5b5060010190565b61325f806200071e6000396000f3fe60806040526004361061023f5760003560e01c8063766c49c71161012e578063bc06c4cc116100ab578063e985e9c51161006f578063e985e9c514610705578063f2f046fd14610725578063f2fde38b14610745578063f5a9d5bb14610765578063fe1881841461078557600080fd5b8063bc06c4cc1461066d578063c31eb26314610683578063c87b56dd146106a3578063e101e7d5146106c3578063e4860339146106d857600080fd5b8063a22cb465116100f2578063a22cb465146105fa578063a57848b61461061a578063a73d2a5a14610622578063b675b33214610637578063b88d4fde1461064d57600080fd5b8063766c49c7146105715780638da5cb5b146105915780638de9bd1a146105af57806395d89b41146105cf5780639d400a0b146105e457600080fd5b806327eef8b9116101bc57806350b447121161018057806350b44712146104715780636352211e146104fc5780636a078b831461051c57806370a082311461053c578063715018a61461055c57600080fd5b806327eef8b9146103db57806334f5dd43146103fb57806336615eb01461041b578063372263d91461043157806342842e0e1461045157600080fd5b8063095ea7b311610203578063095ea7b314610320578063150b7a021461034257806318c08f261461037b5780631b1e70a11461039b57806323b872dd146103bb57600080fd5b806301ffc9a71461024b57806306d680991461028057806306fdde03146102a4578063081812fc146102c6578063083e5e45146102fe57600080fd5b3661024657005b600080fd5b34801561025757600080fd5b5061026b6102663660046128b7565b6107a5565b60405190151581526020015b60405180910390f35b34801561028c57600080fd5b50610296600a5481565b604051908152602001610277565b3480156102b057600080fd5b506102b96107f7565b6040516102779190612924565b3480156102d257600080fd5b506102e66102e1366004612937565b610889565b6040516001600160a01b039091168152602001610277565b34801561030a57600080fd5b506103136108b0565b6040516102779190612950565b34801561032c57600080fd5b5061034061033b3660046129b9565b610911565b005b34801561034e57600080fd5b5061036261035d366004612a2a565b610a2b565b6040516001600160e01b03199091168152602001610277565b34801561038757600080fd5b50610340610396366004612b79565b610a3c565b3480156103a757600080fd5b506103406103b6366004612c10565b610d6b565b3480156103c757600080fd5b506103406103d6366004612ce5565b61100c565b3480156103e757600080fd5b506011546102e6906001600160a01b031681565b34801561040757600080fd5b50610340610416366004612d21565b61103d565b34801561042757600080fd5b5061029660125481565b34801561043d57600080fd5b506102e661044c366004612937565b611058565b34801561045d57600080fd5b5061034061046c366004612ce5565b611082565b34801561047d57600080fd5b506104c861048c366004612937565b600960205260009081526040902080546001820154600283015460038401546004909401546001600160a01b0390931693919290919060ff1685565b604080516001600160a01b03909616865260208601949094529284019190915260608301521515608082015260a001610277565b34801561050857600080fd5b506102e6610517366004612937565b61109d565b34801561052857600080fd5b50610340610537366004612b79565b6110fd565b34801561054857600080fd5b50610296610557366004612d56565b61133a565b34801561056857600080fd5b506103406113c0565b34801561057d57600080fd5b5061029661058c366004612937565b6113d4565b34801561059d57600080fd5b506000546001600160a01b03166102e6565b3480156105bb57600080fd5b506103406105ca366004612d56565b6115bc565b3480156105db57600080fd5b506102b96115e6565b3480156105f057600080fd5b5061029660105481565b34801561060657600080fd5b50610340610615366004612d7f565b6115f5565b610340611600565b34801561062e57600080fd5b50610340611727565b34801561064357600080fd5b50610296600d5481565b34801561065957600080fd5b50610340610668366004612a2a565b611a6e565b34801561067957600080fd5b50610296600e5481565b34801561068f57600080fd5b5061034061069e366004612db6565b611aa6565b3480156106af57600080fd5b506102b96106be366004612937565b611b16565b3480156106cf57600080fd5b50610296611b8a565b3480156106e457600080fd5b506102966106f3366004612d56565b60086020526000908152604090205481565b34801561071157600080fd5b5061026b610720366004612e1a565b611ce5565b34801561073157600080fd5b50610340610740366004612db6565b611d13565b34801561075157600080fd5b50610340610760366004612d56565b611e59565b34801561077157600080fd5b50610340610780366004612937565b611ecf565b34801561079157600080fd5b50600f546102e6906001600160a01b031681565b60006001600160e01b031982166380ac58cd60e01b14806107d657506001600160e01b03198216635b5e139f60e01b145b806107f157506301ffc9a760e01b6001600160e01b03198316145b92915050565b60606001805461080690612e4d565b80601f016020809104026020016040519081016040528092919081815260200182805461083290612e4d565b801561087f5780601f106108545761010080835404028352916020019161087f565b820191906000526020600020905b81548152906001019060200180831161086257829003601f168201915b5050505050905090565b600061089482611edc565b506000908152600560205260409020546001600160a01b031690565b6060600780548060200260200160405190810160405280929190818152602001828054801561087f57602002820191906000526020600020905b81546001600160a01b031681526001909101906020018083116108ea575050505050905090565b600061091c8261109d565b9050806001600160a01b0316836001600160a01b03160361098e5760405162461bcd60e51b815260206004820152602160248201527f4552433732313a20617070726f76616c20746f2063757272656e74206f776e656044820152603960f91b60648201526084015b60405180910390fd5b336001600160a01b03821614806109aa57506109aa8133611ce5565b610a1c5760405162461bcd60e51b815260206004820152603d60248201527f4552433732313a20617070726f76652063616c6c6572206973206e6f7420746f60448201527f6b656e206f776e6572206f7220617070726f76656420666f7220616c6c0000006064820152608401610985565b610a268383611f3b565b505050565b630a85bd0160e11b5b949350505050565b60005b8151811015610d6757336001600160a01b0316610a74838381518110610a6757610a67612e81565b602002602001015161109d565b6001600160a01b031603610d2957600060096000848481518110610a9a57610a9a612e81565b6020908102919091018101518252818101929092526040908101600020815160a08101835281546001600160a01b03168152600182015493810193909352600281015491830191909152600381015460608301526004015460ff16151560808201528351909150610b2490849084908110610b1757610b17612e81565b6020026020010151611fa9565b60096000848481518110610b3a57610b3a612e81565b6020908102919091018101518252810191909152604001600090812080546001600160a01b031916815560018101829055600281018290556003810191909155600401805460ff19169055608081015115610cb45780516001600160a01b039081166000908152600860205260408082208451909316825281206001908101549192810191610bc99190612ead565b81548110610bd957610bd9612e81565b600091825260208083209091015460408086018051838652600985528286206002015586516001600160a01b03168552600890935290922090516001909101805492935083929091908110610c3057610c30612e81565b600091825260208083209091019290925583516001600160a01b03168152600890915260409020600101805480610c6957610c69612ec0565b60008281526020808220830160001990810183905590920190925583516001600160a01b03168252600890526040812054600a805491929091610cad908490612ead565b9091555050505b805160208201516040516323b872dd60e01b815230600482015233602482015260448101919091526001600160a01b03909116906323b872dd90606401600060405180830381600087803b158015610d0b57600080fd5b505af1158015610d1f573d6000803e3d6000fd5b5050505050610d5f565b818181518110610d3b57610d3b612e81565b6020026020010151604051634c3f0aa760e11b815260040161098591815260200190565b600101610a3f565b5050565b60005b8251811015610a265760086000848381518110610d8d57610d8d612e81565b60200260200101516001600160a01b03166001600160a01b0316815260200190815260200160002060000154600014610fc15760005b828281518110610dd557610dd5612e81565b602002602001015151811015610fbb57838281518110610df757610df7612e81565b60200260200101516001600160a01b03166323b872dd3330868681518110610e2157610e21612e81565b60200260200101518581518110610e3a57610e3a612e81565b60209081029190910101516040516001600160e01b031960e086901b1681526001600160a01b0393841660048201529290911660248301526044820152606401600060405180830381600087803b158015610e9457600080fd5b505af1158015610ea8573d6000803e3d6000fd5b505050506040518060a00160405280858481518110610ec957610ec9612e81565b60200260200101516001600160a01b03168152602001848481518110610ef157610ef1612e81565b60200260200101518381518110610f0a57610f0a612e81565b60209081029190910181015182526000828201819052426040808501919091526060938401829052600b8054835260098452818320865181546001600160a01b0319166001600160a01b039091161781559386015160018501559085015160028401559284015160038301556080909301516004909101805460ff19169115159190911790558054610fab92339290610fa283612ed6565b9190505561203e565b610fb481612ed6565b9050610dc3565b50611004565b828181518110610fd357610fd3612e81565b60200260200101516040516306439c6b60e01b815260040161098591906001600160a01b0391909116815260200190565b600101610d6e565b6110163382612058565b6110325760405162461bcd60e51b815260040161098590612eef565b610a268383836120b6565b61104561221a565b8051610d6790600c9060208401906127ec565b600c818154811061106857600080fd5b6000918252602090912001546001600160a01b0316905081565b610a2683838360405180602001604052806000815250611a6e565b6000818152600360205260408120546001600160a01b0316806107f15760405162461bcd60e51b8152602060048201526018602482015277115490cdcc8c4e881a5b9d985b1a59081d1bdad95b88125160421b6044820152606401610985565b60005b8151811015610d6757336001600160a01b0316611128838381518110610a6757610a67612e81565b6001600160a01b031603610d295760006009600084848151811061114e5761114e612e81565b6020908102919091018101518252818101929092526040908101600020815160a08101835281546001600160a01b03168152600182015493810193909352600281015491830191909152600381015460608301526004015460ff1615801560808301819052919250906111d15750600e5460608201516111ce9042612ead565b10155b156112fb5760016080820181905281516001600160a01b03908116600090815260086020818152604080842086015481880152865190941683525220845191019084908490811061122457611224612e81565b60209081029190910181015182546001810184556000938452918320909101558351829160099186908690811061125d5761125d612e81565b60209081029190910181015182528181019290925260409081016000908120845181546001600160a01b0319166001600160a01b03918216178255858501516001830155858401516002830155606086015160038301556080909501516004909101805460ff1916911515919091179055845190931683526008909152812054600a8054919290916112f0908490612f3c565b909155506113319050565b82828151811061130d5761130d612e81565b602002602001015160405163aaf5034b60e01b815260040161098591815260200190565b50600101611100565b60006001600160a01b0382166113a45760405162461bcd60e51b815260206004820152602960248201527f4552433732313a2061646472657373207a65726f206973206e6f7420612076616044820152683634b21037bbb732b960b91b6064820152608401610985565b506001600160a01b031660009081526004602052604090205490565b6113c861221a565b6113d26000612274565b565b6000805b6007548110156114f357600060086000600784815481106113fb576113fb612e81565b60009182526020808320909101546001600160a01b0316835282810193909352604091820190208151808301835281548152600182018054845181870281018701909552808552919492938584019390929083018282801561147c57602002820191906000526020600020905b815481526020019060010190808311611468575b50505050508152505090506000816000015182602001515161149e9190612f4f565b9050808510156114de57602082015182516114b99087612f7c565b955085815181106114cc576114cc612e81565b60200260200101519350505050919050565b90930392506114ec81612ed6565b90506113d8565b506007805460089160009161150a90600190612ead565b8154811061151a5761151a612e81565b60009182526020808320909101546001600160a01b031683528201929092526040018120600780546001928301936008929091611558908590612ead565b8154811061156857611568612e81565b60009182526020808320909101546001600160a01b0316835282019290925260400190206001015461159a9190612ead565b815481106115aa576115aa612e81565b90600052602060002001549050919050565b6115c461221a565b601180546001600160a01b0319166001600160a01b0392909216919091179055565b60606002805461080690612e4d565b610d673383836122c4565b600d5442101561162357604051630313ce3760e41b815260040160405180910390fd5b43601255600e546116349042612f3c565b600d55601154604080516334cd994560e11b815290516000926001600160a01b03169163699b328a913491600480820192602092909190829003018185885af1158015611685573d6000803e3d6000fd5b50505050506040513d601f19601f820116820180604052508101906116aa9190612f90565b905034811015611724576000336116c18334612ead565b604051600081818185875af1925050503d80600081146116fd576040519150601f19603f3d011682016040523d82523d6000602084013e611702565b606091505b5050905080610d6757604051630185aa0b60e21b815260040160405180910390fd5b50565b60125460000361174a57604051630e1a0b9360e31b815260040160405180910390fd5b600a5460115460125460405163fb476cad60e01b81526004810191909152600092916001600160a01b03169063fb476cad90602401602060405180830381865afa15801561179c573d6000803e3d6000fd5b505050506040513d601f19601f820116820180604052508101906117c09190612f90565b6117ca9190612fa9565b600060128190559091506117dd826113d4565b905060006117ea8261109d565b90506000805b600c548110156119da576000600c828154811061180f5761180f612e81565b6000918252602090912001546040516370a0823160e01b81523060048201526001600160a01b03909116906370a0823190602401602060405180830381865afa158015611860573d6000803e3d6000fd5b505050506040513d601f19601f820116820180604052508101906118849190612f90565b9050600c828154811061189957611899612e81565b600091825260209182902001546040805163313ce56760e01b815290516001600160a01b039092169263313ce567926004808401938290030181865afa1580156118e7573d6000803e3d6000fd5b505050506040513d601f19601f8201168201806040525081019061190b9190612fbd565b611916906012612fe0565b61192190600a6130dd565b61192b9082612f4f565b6119359084612f3c565b9250600c828154811061194a5761194a612e81565b6000918252602090912001546040516323b872dd60e01b81523060048201526001600160a01b03868116602483015260448201849052909116906323b872dd906064016020604051808303816000875af11580156119ac573d6000803e3d6000fd5b505050506040513d601f19601f820116820180604052508101906119d091906130ec565b50506001016117f0565b5060405147906000906001600160a01b0385169083908381818185875af1925050503d8060008114611a28576040519150601f19603f3d011682016040523d82523d6000602084013e611a2d565b606091505b505090508015611a4457611a418284612f3c565b92505b5050600f80546001600160a01b0319166001600160a01b0393909316929092179091556010555050565b611a783383612058565b611a945760405162461bcd60e51b815260040161098590612eef565b611aa084848484612392565b50505050565b611aae61221a565b60005b8251811015610a2657818181518110611acc57611acc612e81565b602002602001015160086000858481518110611aea57611aea612e81565b6020908102919091018101516001600160a01b0316825281019190915260400160002055600101611ab1565b6060611b2182611edc565b6000611b3860408051602081019091526000815290565b90506000815111611b585760405180602001604052806000815250611b83565b80611b62846123c5565b604051602001611b73929190613109565b6040516020818303038152906040525b9392505050565b600080805b600c54811015611cdf576000600c8281548110611bae57611bae612e81565b6000918252602090912001546040516370a0823160e01b81523060048201526001600160a01b03909116906370a0823190602401602060405180830381865afa158015611bff573d6000803e3d6000fd5b505050506040513d601f19601f82011682018060405250810190611c239190612f90565b9050600c8281548110611c3857611c38612e81565b600091825260209182902001546040805163313ce56760e01b815290516001600160a01b039092169263313ce567926004808401938290030181865afa158015611c86573d6000803e3d6000fd5b505050506040513d601f19601f82011682018060405250810190611caa9190612fbd565b611cb5906012612fe0565b611cc090600a6130dd565b611cca9082612f4f565b611cd49084612f3c565b925050600101611b8f565b50919050565b6001600160a01b03918216600090815260066020908152604080832093909416825291909152205460ff1690565b611d1b61221a565b60005b8251811015610a26576040518060400160405280838381518110611d4457611d44612e81565b60200260200101518152602001600067ffffffffffffffff811115611d6b57611d6b6129e3565b604051908082528060200260200182016040528015611d94578160200160208202803683370190505b5081525060086000858481518110611dae57611dae612e81565b60200260200101516001600160a01b03166001600160a01b03168152602001908152602001600020600082015181600001556020820151816001019080519060200190611dfc929190612851565b509050506007838281518110611e1457611e14612e81565b60209081029190910181015182546001808201855560009485529290932090920180546001600160a01b0319166001600160a01b039093169290921790915501611d1e565b611e6161221a565b6001600160a01b038116611ec65760405162461bcd60e51b815260206004820152602660248201527f4f776e61626c653a206e6577206f776e657220697320746865207a65726f206160448201526564647265737360d01b6064820152608401610985565b61172481612274565b611ed761221a565b600e55565b6000818152600360205260409020546001600160a01b03166117245760405162461bcd60e51b8152602060048201526018602482015277115490cdcc8c4e881a5b9d985b1a59081d1bdad95b88125160421b6044820152606401610985565b600081815260056020526040902080546001600160a01b0319166001600160a01b0384169081179091558190611f708261109d565b6001600160a01b03167f8c5be1e5ebec7d5bd14f71427d1e84f3dd0314c0f7b2291e5b200ac8c7c3b92560405160405180910390a45050565b6000611fb48261109d565b9050611fbf8261109d565b600083815260056020908152604080832080546001600160a01b03199081169091556001600160a01b0385168085526004845282852080546000190190558785526003909352818420805490911690555192935084927fddf252ad1be2c89b69c2b068fc378daa952ba7f163c4a11628f55a4df523b3ef908390a45050565b610d67828260405180602001604052806000815250612458565b6000806120648361109d565b9050806001600160a01b0316846001600160a01b0316148061208b575061208b8185611ce5565b80610a345750836001600160a01b03166120a484610889565b6001600160a01b031614949350505050565b826001600160a01b03166120c98261109d565b6001600160a01b0316146120ef5760405162461bcd60e51b815260040161098590613138565b6001600160a01b0382166121515760405162461bcd60e51b8152602060048201526024808201527f4552433732313a207472616e7366657220746f20746865207a65726f206164646044820152637265737360e01b6064820152608401610985565b826001600160a01b03166121648261109d565b6001600160a01b03161461218a5760405162461bcd60e51b815260040161098590613138565b600081815260056020908152604080832080546001600160a01b03199081169091556001600160a01b0387811680865260048552838620805460001901905590871680865283862080546001019055868652600390945282852080549092168417909155905184937fddf252ad1be2c89b69c2b068fc378daa952ba7f163c4a11628f55a4df523b3ef91a4505050565b6000546001600160a01b031633146113d25760405162461bcd60e51b815260206004820181905260248201527f4f776e61626c653a2063616c6c6572206973206e6f7420746865206f776e65726044820152606401610985565b600080546001600160a01b038381166001600160a01b0319831681178455604051919092169283917f8be0079c531659141344cd1fd0a4f28419497f9722a3daafe3b4186f6b6457e09190a35050565b816001600160a01b0316836001600160a01b0316036123255760405162461bcd60e51b815260206004820152601960248201527f4552433732313a20617070726f766520746f2063616c6c6572000000000000006044820152606401610985565b6001600160a01b03838116600081815260066020908152604080832094871680845294825291829020805460ff191686151590811790915591519182527f17307eab39ab6107e8899845ad3d59bd9653f200f220920489ca2b5937696c31910160405180910390a3505050565b61239d8484846120b6565b6123a98484848461248b565b611aa05760405162461bcd60e51b81526004016109859061317d565b606060006123d283612589565b600101905060008167ffffffffffffffff8111156123f2576123f26129e3565b6040519080825280601f01601f19166020018201604052801561241c576020820181803683370190505b5090508181016020015b600019016f181899199a1a9b1b9c1cb0b131b232b360811b600a86061a8153600a850494508461242657509392505050565b6124628383612661565b61246f600084848461248b565b610a265760405162461bcd60e51b81526004016109859061317d565b60006001600160a01b0384163b1561258157604051630a85bd0160e11b81526001600160a01b0385169063150b7a02906124cf9033908990889088906004016131cf565b6020604051808303816000875af192505050801561250a575060408051601f3d908101601f191682019092526125079181019061320c565b60015b612567573d808015612538576040519150601f19603f3d011682016040523d82523d6000602084013e61253d565b606091505b50805160000361255f5760405162461bcd60e51b81526004016109859061317d565b805181602001fd5b6001600160e01b031916630a85bd0160e11b149050610a34565b506001610a34565b60008072184f03e93ff9f4daa797ed6e38ed64bf6a1f0160401b83106125c85772184f03e93ff9f4daa797ed6e38ed64bf6a1f0160401b830492506040015b6d04ee2d6d415b85acef810000000083106125f4576d04ee2d6d415b85acef8100000000830492506020015b662386f26fc10000831061261257662386f26fc10000830492506010015b6305f5e100831061262a576305f5e100830492506008015b612710831061263e57612710830492506004015b60648310612650576064830492506002015b600a83106107f15760010192915050565b6001600160a01b0382166126b75760405162461bcd60e51b815260206004820181905260248201527f4552433732313a206d696e7420746f20746865207a65726f20616464726573736044820152606401610985565b6000818152600360205260409020546001600160a01b03161561271c5760405162461bcd60e51b815260206004820152601c60248201527f4552433732313a20746f6b656e20616c7265616479206d696e746564000000006044820152606401610985565b6000818152600360205260409020546001600160a01b0316156127815760405162461bcd60e51b815260206004820152601c60248201527f4552433732313a20746f6b656e20616c7265616479206d696e746564000000006044820152606401610985565b6001600160a01b038216600081815260046020908152604080832080546001019055848352600390915280822080546001600160a01b0319168417905551839291907fddf252ad1be2c89b69c2b068fc378daa952ba7f163c4a11628f55a4df523b3ef908290a45050565b828054828255906000526020600020908101928215612841579160200282015b8281111561284157825182546001600160a01b0319166001600160a01b0390911617825560209092019160019091019061280c565b5061284d92915061288c565b5090565b828054828255906000526020600020908101928215612841579160200282015b82811115612841578251825591602001919060010190612871565b5b8082111561284d576000815560010161288d565b6001600160e01b03198116811461172457600080fd5b6000602082840312156128c957600080fd5b8135611b83816128a1565b60005b838110156128ef5781810151838201526020016128d7565b50506000910152565b600081518084526129108160208601602086016128d4565b601f01601f19169290920160200192915050565b602081526000611b8360208301846128f8565b60006020828403121561294957600080fd5b5035919050565b6020808252825182820181905260009190848201906040850190845b818110156129915783516001600160a01b03168352928401929184019160010161296c565b50909695505050505050565b80356001600160a01b03811681146129b457600080fd5b919050565b600080604083850312156129cc57600080fd5b6129d58361299d565b946020939093013593505050565b634e487b7160e01b600052604160045260246000fd5b604051601f8201601f1916810167ffffffffffffffff81118282101715612a2257612a226129e3565b604052919050565b60008060008060808587031215612a4057600080fd5b612a498561299d565b93506020612a5881870161299d565b935060408601359250606086013567ffffffffffffffff80821115612a7c57600080fd5b818801915088601f830112612a9057600080fd5b813581811115612aa257612aa26129e3565b612ab4601f8201601f191685016129f9565b91508082528984828501011115612aca57600080fd5b808484018584013760008482840101525080935050505092959194509250565b600067ffffffffffffffff821115612b0457612b046129e3565b5060051b60200190565b600082601f830112612b1f57600080fd5b81356020612b34612b2f83612aea565b6129f9565b82815260059290921b84018101918181019086841115612b5357600080fd5b8286015b84811015612b6e5780358352918301918301612b57565b509695505050505050565b600060208284031215612b8b57600080fd5b813567ffffffffffffffff811115612ba257600080fd5b610a3484828501612b0e565b600082601f830112612bbf57600080fd5b81356020612bcf612b2f83612aea565b82815260059290921b84018101918181019086841115612bee57600080fd5b8286015b84811015612b6e57612c038161299d565b8352918301918301612bf2565b60008060408385031215612c2357600080fd5b823567ffffffffffffffff80821115612c3b57600080fd5b612c4786838701612bae565b9350602091508185013581811115612c5e57600080fd5b8501601f81018713612c6f57600080fd5b8035612c7d612b2f82612aea565b81815260059190911b82018401908481019089831115612c9c57600080fd5b8584015b83811015612cd457803586811115612cb85760008081fd5b612cc68c8983890101612b0e565b845250918601918601612ca0565b508096505050505050509250929050565b600080600060608486031215612cfa57600080fd5b612d038461299d565b9250612d116020850161299d565b9150604084013590509250925092565b600060208284031215612d3357600080fd5b813567ffffffffffffffff811115612d4a57600080fd5b610a3484828501612bae565b600060208284031215612d6857600080fd5b611b838261299d565b801515811461172457600080fd5b60008060408385031215612d9257600080fd5b612d9b8361299d565b91506020830135612dab81612d71565b809150509250929050565b60008060408385031215612dc957600080fd5b823567ffffffffffffffff80821115612de157600080fd5b612ded86838701612bae565b93506020850135915080821115612e0357600080fd5b50612e1085828601612b0e565b9150509250929050565b60008060408385031215612e2d57600080fd5b612e368361299d565b9150612e446020840161299d565b90509250929050565b600181811c90821680612e6157607f821691505b602082108103611cdf57634e487b7160e01b600052602260045260246000fd5b634e487b7160e01b600052603260045260246000fd5b634e487b7160e01b600052601160045260246000fd5b818103818111156107f1576107f1612e97565b634e487b7160e01b600052603160045260246000fd5b600060018201612ee857612ee8612e97565b5060010190565b6020808252602d908201527f4552433732313a2063616c6c6572206973206e6f7420746f6b656e206f776e6560408201526c1c881bdc88185c1c1c9bdd9959609a1b606082015260800190565b808201808211156107f1576107f1612e97565b80820281158282048414176107f1576107f1612e97565b634e487b7160e01b600052601260045260246000fd5b600082612f8b57612f8b612f66565b500490565b600060208284031215612fa257600080fd5b5051919050565b600082612fb857612fb8612f66565b500690565b600060208284031215612fcf57600080fd5b815160ff81168114611b8357600080fd5b60ff82811682821603908111156107f1576107f1612e97565b600181815b8085111561303457816000190482111561301a5761301a612e97565b8085161561302757918102915b93841c9390800290612ffe565b509250929050565b60008261304b575060016107f1565b81613058575060006107f1565b816001811461306e576002811461307857613094565b60019150506107f1565b60ff84111561308957613089612e97565b50506001821b6107f1565b5060208310610133831016604e8410600b84101617156130b7575081810a6107f1565b6130c18383612ff9565b80600019048211156130d5576130d5612e97565b029392505050565b6000611b8360ff84168361303c565b6000602082840312156130fe57600080fd5b8151611b8381612d71565b6000835161311b8184602088016128d4565b83519083019061312f8183602088016128d4565b01949350505050565b60208082526025908201527f4552433732313a207472616e736665722066726f6d20696e636f72726563742060408201526437bbb732b960d91b606082015260800190565b60208082526032908201527f4552433732313a207472616e7366657220746f206e6f6e20455243373231526560408201527131b2b4bb32b91034b6b83632b6b2b73a32b960711b606082015260800190565b6001600160a01b0385811682528416602082015260408101839052608060608201819052600090613202908301846128f8565b9695505050505050565b60006020828403121561321e57600080fd5b8151611b83816128a156fea2646970667358221220e35db8a2f3270940000dd6052c200738358d94870a5d6af583dbdcb0b172c75d64736f6c63430008140033",
    "linkReferences": {}
  },
  "methodIdentifiers": {
    "addTokens(address[],uint256[])": "f2f046fd",
    "approve(address,uint256)": "095ea7b3",
    "balanceOf(address)": "70a08231",
    "doDraw()": "a73d2a5a",
    "drawInterval()": "bc06c4cc",
    "enter(address[],uint256[][])": "1b1e70a1",
    "exit(uint256[])": "18c08f26",
    "findRandomNFT(uint256)": "766c49c7",
    "getApproved(uint256)": "081812fc",
    "getTokensSupported()": "083e5e45",
    "interestsCumulated()": "06d68099",
    "isApprovedForAll(address,address)": "e985e9c5",
    "lastPrize()": "9d400a0b",
    "lastWinner()": "fe188184",
    "name()": "06fdde03",
    "nextDrawTimestamp()": "b675b332",
    "onERC721Received(address,address,uint256,bytes)": "150b7a02",
    "owner()": "8da5cb5b",
    "ownerOf(uint256)": "6352211e",
    "prizeToBeWon()": "e101e7d5",
    "renounceOwnership()": "715018a6",
    "rentTokens(uint256)": "372263d9",
    "requestDraw()": "a57848b6",
    "safeTransferFrom(address,address,uint256)": "42842e0e",
    "safeTransferFrom(address,address,uint256,bytes)": "b88d4fde",
    "setApprovalForAll(address,bool)": "a22cb465",
    "setDrawInterval(uint256)": "f5a9d5bb",
    "setInterests(address[],uint256[])": "c31eb263",
    "setRentTokens(address[])": "34f5dd43",
    "setWitnet(address)": "8de9bd1a",
    "stack(uint256[])": "6a078b83",
    "supportsInterface(bytes4)": "01ffc9a7",
    "symbol()": "95d89b41",
    "tickets(uint256)": "50b44712",
    "tokenURI(uint256)": "c87b56dd",
    "tokens(address)": "e4860339",
    "transferFrom(address,address,uint256)": "23b872dd",
    "transferOwnership(address)": "f2fde38b",
    "witnetRandomness()": "27eef8b9",
    "witnetRandomnessBlock()": "36615eb0"
  },
  "id": 39
}